{
  "contractName": "AddressWhitelist",
  "abi": [
    {
      "constant": false,
      "inputs": [],
      "name": "renounceOwnership",
      "outputs": [],
      "payable": false,
      "stateMutability": "nonpayable",
      "type": "function",
      "signature": "0x715018a6"
    },
    {
      "constant": true,
      "inputs": [],
      "name": "owner",
      "outputs": [
        {
          "name": "",
          "type": "address"
        }
      ],
      "payable": false,
      "stateMutability": "view",
      "type": "function",
      "signature": "0x8da5cb5b"
    },
    {
      "constant": true,
      "inputs": [],
      "name": "isOwner",
      "outputs": [
        {
          "name": "",
          "type": "bool"
        }
      ],
      "payable": false,
      "stateMutability": "view",
      "type": "function",
      "signature": "0x8f32d59b"
    },
    {
      "constant": false,
      "inputs": [
        {
          "name": "newOwner",
          "type": "address"
        }
      ],
      "name": "transferOwnership",
      "outputs": [],
      "payable": false,
      "stateMutability": "nonpayable",
      "type": "function",
      "signature": "0xf2fde38b"
    },
    {
      "anonymous": false,
      "inputs": [
        {
          "indexed": true,
          "name": "addedAddress",
          "type": "address"
        }
      ],
      "name": "AddToWhitelist",
      "type": "event",
      "signature": "0x75b2135d1c8c3519f3c09c43fe6527089ef09f40c7981ebf0ed46e79e79032c7"
    },
    {
      "anonymous": false,
      "inputs": [
        {
          "indexed": true,
          "name": "removedAddress",
          "type": "address"
        }
      ],
      "name": "RemoveFromWhitelist",
      "type": "event",
      "signature": "0x1f756c8b089af6b33ee121fee8badac2553a2fa89c0575ea91ff8792617746c2"
    },
    {
      "anonymous": false,
      "inputs": [
        {
          "indexed": true,
          "name": "previousOwner",
          "type": "address"
        },
        {
          "indexed": true,
          "name": "newOwner",
          "type": "address"
        }
      ],
      "name": "OwnershipTransferred",
      "type": "event",
      "signature": "0x8be0079c531659141344cd1fd0a4f28419497f9722a3daafe3b4186f6b6457e0"
    },
    {
      "constant": false,
      "inputs": [
        {
          "name": "newElement",
          "type": "address"
        }
      ],
      "name": "addToWhitelist",
      "outputs": [],
      "payable": false,
      "stateMutability": "nonpayable",
      "type": "function",
      "signature": "0xe43252d7"
    },
    {
      "constant": false,
      "inputs": [
        {
          "name": "elementToRemove",
          "type": "address"
        }
      ],
      "name": "removeFromWhitelist",
      "outputs": [],
      "payable": false,
      "stateMutability": "nonpayable",
      "type": "function",
      "signature": "0x8ab1d681"
    },
    {
      "constant": true,
      "inputs": [
        {
          "name": "elementToCheck",
          "type": "address"
        }
      ],
      "name": "isOnWhitelist",
      "outputs": [
        {
          "name": "",
          "type": "bool"
        }
      ],
      "payable": false,
      "stateMutability": "view",
      "type": "function",
      "signature": "0x3a3ab672"
    },
    {
      "constant": true,
      "inputs": [],
      "name": "getWhitelist",
      "outputs": [
        {
          "name": "activeWhitelist",
          "type": "address[]"
        }
      ],
      "payable": false,
      "stateMutability": "view",
      "type": "function",
      "signature": "0xd01f63f5"
    }
  ],
  "bytecode": "0x6080604052336000806101000a81548173ffffffffffffffffffffffffffffffffffffffff021916908373ffffffffffffffffffffffffffffffffffffffff1602179055506000809054906101000a900473ffffffffffffffffffffffffffffffffffffffff1673ffffffffffffffffffffffffffffffffffffffff16600073ffffffffffffffffffffffffffffffffffffffff167f8be0079c531659141344cd1fd0a4f28419497f9722a3daafe3b4186f6b6457e060405160405180910390a3610b4e806100cf6000396000f3fe60806040526004361061008e576000357c0100000000000000000000000000000000000000000000000000000000900463ffffffff1680633a3ab67214610093578063715018a6146100fc5780638ab1d681146101135780638da5cb5b146101645780638f32d59b146101bb578063d01f63f5146101ea578063e43252d714610256578063f2fde38b146102a7575b600080fd5b34801561009f57600080fd5b506100e2600480360360208110156100b657600080fd5b81019080803573ffffffffffffffffffffffffffffffffffffffff1690602001909291905050506102f8565b604051808215151515815260200191505060405180910390f35b34801561010857600080fd5b50610111610367565b005b34801561011f57600080fd5b506101626004803603602081101561013657600080fd5b81019080803573ffffffffffffffffffffffffffffffffffffffff169060200190929190505050610439565b005b34801561017057600080fd5b5061017961055f565b604051808273ffffffffffffffffffffffffffffffffffffffff1673ffffffffffffffffffffffffffffffffffffffff16815260200191505060405180910390f35b3480156101c757600080fd5b506101d0610588565b604051808215151515815260200191505060405180910390f35b3480156101f657600080fd5b506101ff6105df565b6040518080602001828103825283818151815260200191508051906020019060200280838360005b83811015610242578082015181840152602081019050610227565b505050509050019250505060405180910390f35b34801561026257600080fd5b506102a56004803603602081101561027957600080fd5b81019080803573ffffffffffffffffffffffffffffffffffffffff16906020019092919050505061080d565b005b3480156102b357600080fd5b506102f6600480360360208110156102ca57600080fd5b81019080803573ffffffffffffffffffffffffffffffffffffffff169060200190929190505050610a09565b005b60006001600281111561030757fe5b600160008473ffffffffffffffffffffffffffffffffffffffff1673ffffffffffffffffffffffffffffffffffffffff16815260200190815260200160002060009054906101000a900460ff16600281111561035f57fe5b149050919050565b61036f610588565b151561037a57600080fd5b600073ffffffffffffffffffffffffffffffffffffffff166000809054906101000a900473ffffffffffffffffffffffffffffffffffffffff1673ffffffffffffffffffffffffffffffffffffffff167f8be0079c531659141344cd1fd0a4f28419497f9722a3daafe3b4186f6b6457e060405160405180910390a360008060006101000a81548173ffffffffffffffffffffffffffffffffffffffff021916908373ffffffffffffffffffffffffffffffffffffffff160217905550565b610441610588565b151561044c57600080fd5b60028081111561045857fe5b600160008373ffffffffffffffffffffffffffffffffffffffff1673ffffffffffffffffffffffffffffffffffffffff16815260200190815260200160002060009054906101000a900460ff1660028111156104b057fe5b14151561055c576002600160008373ffffffffffffffffffffffffffffffffffffffff1673ffffffffffffffffffffffffffffffffffffffff16815260200190815260200160002060006101000a81548160ff0219169083600281111561051357fe5b02179055508073ffffffffffffffffffffffffffffffffffffffff167f1f756c8b089af6b33ee121fee8badac2553a2fa89c0575ea91ff8792617746c260405160405180910390a25b50565b60008060009054906101000a900473ffffffffffffffffffffffffffffffffffffffff16905090565b60008060009054906101000a900473ffffffffffffffffffffffffffffffffffffffff1673ffffffffffffffffffffffffffffffffffffffff163373ffffffffffffffffffffffffffffffffffffffff1614905090565b6060600080905060008090505b6002805490508110156106b3576001600281111561060657fe5b6001600060028481548110151561061957fe5b9060005260206000200160009054906101000a900473ffffffffffffffffffffffffffffffffffffffff1673ffffffffffffffffffffffffffffffffffffffff1673ffffffffffffffffffffffffffffffffffffffff16815260200190815260200160002060009054906101000a900460ff16600281111561069757fe5b14156106a65781806001019250505b80806001019150506105ec565b50806040519080825280602002602001820160405280156106e35781602001602082028038833980820191505090505b5091506000905060008090505b60028054905081101561080857600060028281548110151561070e57fe5b9060005260206000200160009054906101000a900473ffffffffffffffffffffffffffffffffffffffff1690506001600281111561074857fe5b600160008373ffffffffffffffffffffffffffffffffffffffff1673ffffffffffffffffffffffffffffffffffffffff16815260200190815260200160002060009054906101000a900460ff1660028111156107a057fe5b14156107fa578084848151811015156107b557fe5b9060200190602002019073ffffffffffffffffffffffffffffffffffffffff16908173ffffffffffffffffffffffffffffffffffffffff168152505082806001019350505b5080806001019150506106f0565b505090565b610815610588565b151561082057600080fd5b6001600281111561082d57fe5b600160008373ffffffffffffffffffffffffffffffffffffffff1673ffffffffffffffffffffffffffffffffffffffff16815260200190815260200160002060009054906101000a900460ff16600281111561088557fe5b141561089057610a06565b6000600281111561089d57fe5b600160008373ffffffffffffffffffffffffffffffffffffffff1673ffffffffffffffffffffffffffffffffffffffff16815260200190815260200160002060009054906101000a900460ff1660028111156108f557fe5b14156109625760028190806001815401808255809150509060018203906000526020600020016000909192909190916101000a81548173ffffffffffffffffffffffffffffffffffffffff021916908373ffffffffffffffffffffffffffffffffffffffff160217905550505b60018060008373ffffffffffffffffffffffffffffffffffffffff1673ffffffffffffffffffffffffffffffffffffffff16815260200190815260200160002060006101000a81548160ff021916908360028111156109bd57fe5b02179055508073ffffffffffffffffffffffffffffffffffffffff167f75b2135d1c8c3519f3c09c43fe6527089ef09f40c7981ebf0ed46e79e79032c760405160405180910390a25b50565b610a11610588565b1515610a1c57600080fd5b610a2581610a28565b50565b600073ffffffffffffffffffffffffffffffffffffffff168173ffffffffffffffffffffffffffffffffffffffff1614151515610a6457600080fd5b8073ffffffffffffffffffffffffffffffffffffffff166000809054906101000a900473ffffffffffffffffffffffffffffffffffffffff1673ffffffffffffffffffffffffffffffffffffffff167f8be0079c531659141344cd1fd0a4f28419497f9722a3daafe3b4186f6b6457e060405160405180910390a3806000806101000a81548173ffffffffffffffffffffffffffffffffffffffff021916908373ffffffffffffffffffffffffffffffffffffffff1602179055505056fea165627a7a72305820df52ea0c3d274a1c242d94a0b5ce6e552f82db2e340c88cabb215032c6c700750029",
  "source": "/*\n  Simple Address Whitelist\n*/\npragma solidity ^0.5.0;\n\nimport \"openzeppelin-solidity/contracts/ownership/Ownable.sol\";\n\n\ncontract AddressWhitelist is Ownable {\n    enum Status { None, In, Out }\n    mapping(address => Status) private whitelist;\n\n    address[] private whitelistIndices;\n\n    // Adds an address to the whitelist\n    function addToWhitelist(address newElement) external onlyOwner {\n        // Ignore if address is already included\n        if (whitelist[newElement] == Status.In) {\n            return;\n        }\n\n        // Only append new addresses to the array, never a duplicate\n        if (whitelist[newElement] == Status.None) {\n            whitelistIndices.push(newElement);\n        }\n\n        whitelist[newElement] = Status.In;\n\n        emit AddToWhitelist(newElement);\n    }\n\n    // Removes an address from the whitelist.\n    function removeFromWhitelist(address elementToRemove) external onlyOwner {\n        if (whitelist[elementToRemove] != Status.Out) {\n            whitelist[elementToRemove] = Status.Out;\n            emit RemoveFromWhitelist(elementToRemove);\n        }\n    }\n\n    // Checks whether an address is on the whitelist.\n    function isOnWhitelist(address elementToCheck) external view returns (bool) {\n        return whitelist[elementToCheck] == Status.In;\n    }\n\n    // Gets all addresses that are currently included in the whitelist\n    // Note: This method skips over, but still iterates through addresses.\n    // It is possible for this call to run out of gas if a large number of\n    // addresses have been removed. To prevent this unlikely scenario, we can\n    // modify the implementation so that when addresses are removed, the last addresses\n    // in the array is moved to the empty index.\n    function getWhitelist() external view returns (address[] memory activeWhitelist) {\n        // Determine size of whitelist first\n        uint activeCount = 0;\n        for (uint i = 0; i < whitelistIndices.length; i++) {\n            if (whitelist[whitelistIndices[i]] == Status.In) {\n                activeCount++;\n            }\n        }\n\n        // Populate whitelist\n        activeWhitelist = new address[](activeCount);\n        activeCount = 0;\n        for (uint i = 0; i < whitelistIndices.length; i++) {\n            address addr = whitelistIndices[i];\n            if (whitelist[addr] == Status.In) {\n                activeWhitelist[activeCount] = addr;\n                activeCount++;\n            }\n        }\n    }\n\n    event AddToWhitelist(address indexed addedAddress);\n    event RemoveFromWhitelist(address indexed removedAddress);\n}\n",
  "sourcePath": "/Users/matt/git/protocol/contracts/AddressWhitelist.sol",
  "compiler": {
    "name": "solc",
    "version": "0.5.0+commit.1d4f565a.Emscripten.clang"
  },
  "schemaVersion": "3.0.1",
  "updatedAt": "2019-03-14T03:02:37.243Z",
  "devdoc": {
    "methods": {
      "isOwner()": {
        "return": "true if `msg.sender` is the owner of the contract."
      },
      "owner()": {
        "return": "the address of the owner."
      },
      "renounceOwnership()": {
        "details": "Allows the current owner to relinquish control of the contract."
      },
      "transferOwnership(address)": {
        "details": "Allows the current owner to transfer control of the contract to a newOwner.",
        "params": {
          "newOwner": "The address to transfer ownership to."
        }
      }
    }
  },
  "userdoc": {
    "methods": {
      "renounceOwnership()": {
        "notice": "Renouncing to ownership will leave the contract without an owner. It will not be possible to call the functions with the `onlyOwner` modifier anymore."
      }
    }
  }
}