{
  "contractName": "CentralizedOracle",
  "abi": [
    {
      "constant": false,
      "inputs": [
        {
          "name": "_time",
          "type": "uint256"
        }
      ],
      "name": "setCurrentTime",
      "outputs": [],
      "payable": false,
      "stateMutability": "nonpayable",
      "type": "function",
      "signature": "0x22f8e566"
    },
    {
      "constant": true,
      "inputs": [],
      "name": "getCurrentTime",
      "outputs": [
        {
          "name": "",
          "type": "uint256"
        }
      ],
      "payable": false,
      "stateMutability": "view",
      "type": "function",
      "signature": "0x29cb924d"
    },
    {
      "constant": false,
      "inputs": [
        {
          "name": "amount",
          "type": "uint256"
        }
      ],
      "name": "withdraw",
      "outputs": [],
      "payable": false,
      "stateMutability": "nonpayable",
      "type": "function",
      "signature": "0x2e1a7d4d"
    },
    {
      "constant": false,
      "inputs": [],
      "name": "renounceOwnership",
      "outputs": [],
      "payable": false,
      "stateMutability": "nonpayable",
      "type": "function",
      "signature": "0x715018a6"
    },
    {
      "constant": true,
      "inputs": [],
      "name": "owner",
      "outputs": [
        {
          "name": "",
          "type": "address"
        }
      ],
      "payable": false,
      "stateMutability": "view",
      "type": "function",
      "signature": "0x8da5cb5b"
    },
    {
      "constant": true,
      "inputs": [],
      "name": "isOwner",
      "outputs": [
        {
          "name": "",
          "type": "bool"
        }
      ],
      "payable": false,
      "stateMutability": "view",
      "type": "function",
      "signature": "0x8f32d59b"
    },
    {
      "constant": true,
      "inputs": [],
      "name": "isTest",
      "outputs": [
        {
          "name": "",
          "type": "bool"
        }
      ],
      "payable": false,
      "stateMutability": "view",
      "type": "function",
      "signature": "0x9381a345"
    },
    {
      "constant": false,
      "inputs": [
        {
          "name": "erc20Address",
          "type": "address"
        },
        {
          "name": "amount",
          "type": "uint256"
        }
      ],
      "name": "withdrawErc20",
      "outputs": [],
      "payable": false,
      "stateMutability": "nonpayable",
      "type": "function",
      "signature": "0xbd1f4b52"
    },
    {
      "constant": false,
      "inputs": [
        {
          "name": "newOwner",
          "type": "address"
        }
      ],
      "name": "transferOwnership",
      "outputs": [],
      "payable": false,
      "stateMutability": "nonpayable",
      "type": "function",
      "signature": "0xf2fde38b"
    },
    {
      "inputs": [
        {
          "name": "_registry",
          "type": "address"
        },
        {
          "name": "_isTest",
          "type": "bool"
        }
      ],
      "payable": false,
      "stateMutability": "nonpayable",
      "type": "constructor",
      "signature": "constructor"
    },
    {
      "anonymous": false,
      "inputs": [
        {
          "indexed": true,
          "name": "identifier",
          "type": "bytes32"
        }
      ],
      "name": "AddSupportedIdentifier",
      "type": "event",
      "signature": "0xc7e37af44984c2b724d6d811bc8e85a9e31e5bda01d172c0a51117d03be69708"
    },
    {
      "anonymous": false,
      "inputs": [
        {
          "indexed": true,
          "name": "previousOwner",
          "type": "address"
        },
        {
          "indexed": true,
          "name": "newOwner",
          "type": "address"
        }
      ],
      "name": "OwnershipTransferred",
      "type": "event",
      "signature": "0x8be0079c531659141344cd1fd0a4f28419497f9722a3daafe3b4186f6b6457e0"
    },
    {
      "anonymous": false,
      "inputs": [
        {
          "indexed": true,
          "name": "identifier",
          "type": "bytes32"
        },
        {
          "indexed": true,
          "name": "time",
          "type": "uint256"
        }
      ],
      "name": "VerifiedPriceRequested",
      "type": "event",
      "signature": "0x2bb40504cc2b3a0e7ca6ef610d2c2ede99691b888390419849e90ac117b82abc"
    },
    {
      "anonymous": false,
      "inputs": [
        {
          "indexed": true,
          "name": "identifier",
          "type": "bytes32"
        },
        {
          "indexed": true,
          "name": "time",
          "type": "uint256"
        },
        {
          "indexed": false,
          "name": "price",
          "type": "int256"
        }
      ],
      "name": "VerifiedPriceAvailable",
      "type": "event",
      "signature": "0x83ca681005f196e636df0f6e560a015328fffb17066e1b45ace5d0c0c5a3902e"
    },
    {
      "constant": false,
      "inputs": [
        {
          "name": "identifier",
          "type": "bytes32"
        },
        {
          "name": "time",
          "type": "uint256"
        }
      ],
      "name": "requestPrice",
      "outputs": [
        {
          "name": "expectedTime",
          "type": "uint256"
        }
      ],
      "payable": false,
      "stateMutability": "nonpayable",
      "type": "function",
      "signature": "0x68ad8ae3"
    },
    {
      "constant": false,
      "inputs": [
        {
          "name": "identifier",
          "type": "bytes32"
        },
        {
          "name": "time",
          "type": "uint256"
        },
        {
          "name": "price",
          "type": "int256"
        }
      ],
      "name": "pushPrice",
      "outputs": [],
      "payable": false,
      "stateMutability": "nonpayable",
      "type": "function",
      "signature": "0x051fd48c"
    },
    {
      "constant": false,
      "inputs": [
        {
          "name": "identifier",
          "type": "bytes32"
        }
      ],
      "name": "addSupportedIdentifier",
      "outputs": [],
      "payable": false,
      "stateMutability": "nonpayable",
      "type": "function",
      "signature": "0x10a7e201"
    },
    {
      "constant": false,
      "inputs": [
        {
          "name": "derivative",
          "type": "address"
        }
      ],
      "name": "callEmergencyShutdown",
      "outputs": [],
      "payable": false,
      "stateMutability": "nonpayable",
      "type": "function",
      "signature": "0x0caf4121"
    },
    {
      "constant": false,
      "inputs": [
        {
          "name": "derivative",
          "type": "address"
        }
      ],
      "name": "callRemargin",
      "outputs": [],
      "payable": false,
      "stateMutability": "nonpayable",
      "type": "function",
      "signature": "0x547e1c40"
    },
    {
      "constant": true,
      "inputs": [
        {
          "name": "identifier",
          "type": "bytes32"
        },
        {
          "name": "time",
          "type": "uint256"
        }
      ],
      "name": "getPrice",
      "outputs": [
        {
          "name": "price",
          "type": "int256"
        }
      ],
      "payable": false,
      "stateMutability": "view",
      "type": "function",
      "signature": "0xc9280f06"
    },
    {
      "constant": true,
      "inputs": [],
      "name": "getPendingQueries",
      "outputs": [
        {
          "components": [
            {
              "name": "identifier",
              "type": "bytes32"
            },
            {
              "name": "time",
              "type": "uint256"
            }
          ],
          "name": "queryPoints",
          "type": "tuple[]"
        }
      ],
      "payable": false,
      "stateMutability": "view",
      "type": "function",
      "signature": "0xb555d608"
    },
    {
      "constant": true,
      "inputs": [
        {
          "name": "identifier",
          "type": "bytes32"
        }
      ],
      "name": "isIdentifierSupported",
      "outputs": [
        {
          "name": "isSupported",
          "type": "bool"
        }
      ],
      "payable": false,
      "stateMutability": "view",
      "type": "function",
      "signature": "0x90978d1b"
    }
  ],
  "bytecode": "0x60806040523480156200001157600080fd5b50604051604080620018e483398101806040526200003391908101906200018f565b80336000806101000a81548173ffffffffffffffffffffffffffffffffffffffff021916908373ffffffffffffffffffffffffffffffffffffffff1602179055506000809054906101000a900473ffffffffffffffffffffffffffffffffffffffff1673ffffffffffffffffffffffffffffffffffffffff16600073ffffffffffffffffffffffffffffffffffffffff167f8be0079c531659141344cd1fd0a4f28419497f9722a3daafe3b4186f6b6457e060405160405180910390a380600060146101000a81548160ff02191690831515021790555080156200011957426001819055505b5081600660006101000a81548173ffffffffffffffffffffffffffffffffffffffff021916908373ffffffffffffffffffffffffffffffffffffffff160217905550505062000210565b6000620001718251620001f0565b905092915050565b600062000187825162000204565b905092915050565b60008060408385031215620001a357600080fd5b6000620001b38582860162000163565b9250506020620001c68582860162000179565b9150509250929050565b600073ffffffffffffffffffffffffffffffffffffffff82169050919050565b6000620001fd82620001d0565b9050919050565b60008115159050919050565b6116c480620002206000396000f3fe6080604052600436106100f1576000357c0100000000000000000000000000000000000000000000000000000000900463ffffffff168063051fd48c146100f65780630caf41211461011f57806310a7e2011461014857806322f8e5661461017157806329cb924d1461019a5780632e1a7d4d146101c5578063547e1c40146101ee57806368ad8ae314610217578063715018a6146102545780638da5cb5b1461026b5780638f32d59b1461029657806390978d1b146102c15780639381a345146102fe578063b555d60814610329578063bd1f4b5214610354578063c9280f061461037d578063f2fde38b146103ba575b600080fd5b34801561010257600080fd5b5061011d600480360361011891908101906112ec565b6103e3565b005b34801561012b57600080fd5b50610146600480360361014191908101906111f9565b610658565b005b34801561015457600080fd5b5061016f600480360361016a9190810190611287565b6106f0565b005b34801561017d57600080fd5b506101986004803603610193919081019061133b565b610787565b005b3480156101a657600080fd5b506101af6107bf565b6040516101bc919061157c565b60405180910390f35b3480156101d157600080fd5b506101ec60048036036101e7919081019061133b565b6107e6565b005b3480156101fa57600080fd5b50610215600480360361021091908101906111f9565b610843565b005b34801561022357600080fd5b5061023e600480360361023991908101906112b0565b6108db565b60405161024b919061157c565b60405180910390f35b34801561026057600080fd5b50610269610b9f565b005b34801561027757600080fd5b50610280610c71565b60405161028d91906114a5565b60405180910390f35b3480156102a257600080fd5b506102ab610c9a565b6040516102b89190611526565b60405180910390f35b3480156102cd57600080fd5b506102e860048036036102e39190810190611287565b610cf1565b6040516102f59190611526565b60405180910390f35b34801561030a57600080fd5b50610313610d1b565b6040516103209190611526565b60405180910390f35b34801561033557600080fd5b5061033e610d2e565b60405161034b9190611504565b60405180910390f35b34801561036057600080fd5b5061037b60048036036103769190810190611222565b610db4565b005b34801561038957600080fd5b506103a4600480360361039f91908101906112b0565b610e85565b6040516103b19190611541565b60405180910390f35b3480156103c657600080fd5b506103e160048036036103dc91908101906111f9565b610fd8565b005b6103eb610c9a565b15156103f657600080fd5b6060604051908101604052806001151581526020018281526020016104196107bf565b81525060036000858152602001908152602001600020600084815260200190815260200160002060008201518160000160006101000a81548160ff021916908315150217905550602082015181600101556040820151816002015590505081837f83ca681005f196e636df0f6e560a015328fffb17066e1b45ace5d0c0c5a3902e836040516104a89190611541565b60405180910390a3600060046000858152602001908152602001600020600084815260200190815260200160002090508060000160009054906101000a900460ff16151561052b576040517f08c379a00000000000000000000000000000000000000000000000000000000081526004016105229061155c565b60405180910390fd5b600081600101549050600460008681526020019081526020016000206000858152602001908152602001600020600080820160006101000a81549060ff02191690556001820160009055505060006105926001600580549050610ff790919063ffffffff16565b905081811415156106295760006005828154811015156105ae57fe5b90600052602060002090600202019050826004600083600001548152602001908152602001600020600083600101548152602001908152602001600020600101819055508060058481548110151561060257fe5b90600052602060002090600202016000820154816000015560018201548160010155905050505b6106426001600580549050610ff790919063ffffffff16565b60058161064f9190611134565b50505050505050565b610660610c9a565b151561066b57600080fd5b60008190508073ffffffffffffffffffffffffffffffffffffffff16633403c2fc6040518163ffffffff167c0100000000000000000000000000000000000000000000000000000000028152600401600060405180830381600087803b1580156106d457600080fd5b505af11580156106e8573d6000803e3d6000fd5b505050505050565b6106f8610c9a565b151561070357600080fd5b6002600082815260200190815260200160002060009054906101000a900460ff1615156107845760016002600083815260200190815260200160002060006101000a81548160ff021916908315150217905550807fc7e37af44984c2b724d6d811bc8e85a9e31e5bda01d172c0a51117d03be6970860405160405180910390a25b50565b61078f610c9a565b151561079a57600080fd5b600060149054906101000a900460ff1615156107b557600080fd5b8060018190555050565b60008060149054906101000a900460ff16156107df5760015490506107e3565b4290505b90565b6107ee610c9a565b15156107f957600080fd5b3373ffffffffffffffffffffffffffffffffffffffff166108fc829081150290604051600060405180830381858888f1935050505015801561083f573d6000803e3d6000fd5b5050565b61084b610c9a565b151561085657600080fd5b60008190508073ffffffffffffffffffffffffffffffffffffffff1663bda02e776040518163ffffffff167c0100000000000000000000000000000000000000000000000000000000028152600401600060405180830381600087803b1580156108bf57600080fd5b505af11580156108d3573d6000803e3d6000fd5b505050505050565b6000600660009054906101000a900473ffffffffffffffffffffffffffffffffffffffff1673ffffffffffffffffffffffffffffffffffffffff16638a3ca36b336040518263ffffffff167c010000000000000000000000000000000000000000000000000000000002815260040161095491906114c0565b60206040518083038186803b15801561096c57600080fd5b505afa158015610980573d6000803e3d6000fd5b505050506040513d601f19601f820116820180604052506109a4919081019061125e565b15156109af57600080fd5b6002600084815260200190815260200160002060009054906101000a900460ff1615156109db57600080fd5b600060036000858152602001908152602001600020600084815260200190815260200160002090508060000160009054906101000a900460ff1615610a24576000915050610b99565b60046000858152602001908152602001600020600084815260200190815260200160002060000160009054906101000a900460ff1615610a8357610a7b62093a80610a6d6107bf565b61101990919063ffffffff16565b915050610b99565b604080519081016040528060011515815260200160058054905081525060046000868152602001908152602001600020600085815260200190815260200160002060008201518160000160006101000a81548160ff02191690831515021790555060208201518160010155905050600560408051908101604052808681526020018581525090806001815401808255809150509060018203906000526020600020906002020160009091929091909150600082015181600001556020820151816001015550505082847f2bb40504cc2b3a0e7ca6ef610d2c2ede99691b888390419849e90ac117b82abc60405160405180910390a3610b9562093a80610b876107bf565b61101990919063ffffffff16565b9150505b92915050565b610ba7610c9a565b1515610bb257600080fd5b600073ffffffffffffffffffffffffffffffffffffffff166000809054906101000a900473ffffffffffffffffffffffffffffffffffffffff1673ffffffffffffffffffffffffffffffffffffffff167f8be0079c531659141344cd1fd0a4f28419497f9722a3daafe3b4186f6b6457e060405160405180910390a360008060006101000a81548173ffffffffffffffffffffffffffffffffffffffff021916908373ffffffffffffffffffffffffffffffffffffffff160217905550565b60008060009054906101000a900473ffffffffffffffffffffffffffffffffffffffff16905090565b60008060009054906101000a900473ffffffffffffffffffffffffffffffffffffffff1673ffffffffffffffffffffffffffffffffffffffff163373ffffffffffffffffffffffffffffffffffffffff1614905090565b60006002600083815260200190815260200160002060009054906101000a900460ff169050919050565b600060149054906101000a900460ff1681565b6060610d38610c9a565b1515610d4357600080fd5b6005805480602002602001604051908101604052809291908181526020016000905b82821015610dab57838290600052602060002090600202016040805190810160405290816000820154815260200160018201548152505081526020019060010190610d65565b50505050905090565b610dbc610c9a565b1515610dc757600080fd5b60008290508073ffffffffffffffffffffffffffffffffffffffff1663a9059cbb33846040518363ffffffff167c0100000000000000000000000000000000000000000000000000000000028152600401610e239291906114db565b602060405180830381600087803b158015610e3d57600080fd5b505af1158015610e51573d6000803e3d6000fd5b505050506040513d601f19601f82011682018060405250610e75919081019061125e565b1515610e8057600080fd5b505050565b6000600660009054906101000a900473ffffffffffffffffffffffffffffffffffffffff1673ffffffffffffffffffffffffffffffffffffffff16638a3ca36b336040518263ffffffff167c0100000000000000000000000000000000000000000000000000000000028152600401610efe91906114c0565b60206040518083038186803b158015610f1657600080fd5b505afa158015610f2a573d6000803e3d6000fd5b505050506040513d601f19601f82011682018060405250610f4e919081019061125e565b1515610f5957600080fd5b6002600084815260200190815260200160002060009054906101000a900460ff161515610f8557600080fd5b600060036000858152602001908152602001600020600084815260200190815260200160002090508060000160009054906101000a900460ff161515610fca57600080fd5b806001015491505092915050565b610fe0610c9a565b1515610feb57600080fd5b610ff48161103a565b50565b600082821115151561100857600080fd5b600082840390508091505092915050565b600080828401905083811015151561103057600080fd5b8091505092915050565b600073ffffffffffffffffffffffffffffffffffffffff168173ffffffffffffffffffffffffffffffffffffffff161415151561107657600080fd5b8073ffffffffffffffffffffffffffffffffffffffff166000809054906101000a900473ffffffffffffffffffffffffffffffffffffffff1673ffffffffffffffffffffffffffffffffffffffff167f8be0079c531659141344cd1fd0a4f28419497f9722a3daafe3b4186f6b6457e060405160405180910390a3806000806101000a81548173ffffffffffffffffffffffffffffffffffffffff021916908373ffffffffffffffffffffffffffffffffffffffff16021790555050565b815481835581811115611161576002028160020283600052602060002091820191016111609190611166565b5b505050565b61119291905b8082111561118e5760008082016000905560018201600090555060020161116c565b5090565b90565b60006111a18235611618565b905092915050565b60006111b5825161162a565b905092915050565b60006111c98235611636565b905092915050565b60006111dd8235611640565b905092915050565b60006111f1823561164a565b905092915050565b60006020828403121561120b57600080fd5b600061121984828501611195565b91505092915050565b6000806040838503121561123557600080fd5b600061124385828601611195565b9250506020611254858286016111e5565b9150509250929050565b60006020828403121561127057600080fd5b600061127e848285016111a9565b91505092915050565b60006020828403121561129957600080fd5b60006112a7848285016111bd565b91505092915050565b600080604083850312156112c357600080fd5b60006112d1858286016111bd565b92505060206112e2858286016111e5565b9150509250929050565b60008060006060848603121561130157600080fd5b600061130f868287016111bd565b9350506020611320868287016111e5565b9250506040611331868287016111d1565b9150509250925092565b60006020828403121561134d57600080fd5b600061135b848285016111e5565b91505092915050565b61136d81611654565b82525050565b61137c816115bc565b82525050565b600061138d826115a4565b80845260208401935061139f83611597565b60005b828110156113d1576113b5868351611467565b6113be826115af565b91506040860195506001810190506113a2565b50849250505092915050565b6113e6816115ce565b82525050565b6113f5816115da565b82525050565b611404816115e4565b82525050565b6000602d82527f43616e2774207075736820707269636573207468617420686176656e2774206260208301527f65656e20726571756573746564000000000000000000000000000000000000006040830152606082019050919050565b60408201600082015161147d60008501826113ec565b5060208201516114906020850182611496565b50505050565b61149f8161160e565b82525050565b60006020820190506114ba6000830184611373565b92915050565b60006020820190506114d56000830184611364565b92915050565b60006040820190506114f06000830185611364565b6114fd6020830184611496565b9392505050565b6000602082019050818103600083015261151e8184611382565b905092915050565b600060208201905061153b60008301846113dd565b92915050565b600060208201905061155660008301846113fb565b92915050565b600060208201905081810360008301526115758161140a565b9050919050565b60006020820190506115916000830184611496565b92915050565b6000602082019050919050565b600081519050919050565b6000602082019050919050565b60006115c7826115ee565b9050919050565b60008115159050919050565b6000819050919050565b6000819050919050565b600073ffffffffffffffffffffffffffffffffffffffff82169050919050565b6000819050919050565b6000611623826115ee565b9050919050565b60008115159050919050565b6000819050919050565b6000819050919050565b6000819050919050565b600061165f82611666565b9050919050565b600061167182611678565b9050919050565b6000611683826115ee565b905091905056fea265627a7a72305820444547d1e6aefc4631d94bc82aed4691af1d9295261f3118717192b52591422b6c6578706572696d656e74616cf50037",
  "source": "/*\n  CentralizedOracle implementation.\n\n  Implementation of OracleInterface that allows the owner to provide verified prices.\n*/\npragma solidity ^0.5.0;\n\npragma experimental ABIEncoderV2;\n\nimport \"openzeppelin-solidity/contracts/math/SafeMath.sol\";\nimport \"openzeppelin-solidity/contracts/ownership/Ownable.sol\";\nimport \"./AdminInterface.sol\";\nimport \"./OracleInterface.sol\";\nimport \"./RegistryInterface.sol\";\nimport \"./Testable.sol\";\nimport \"./Withdrawable.sol\";\n\n\n// Implements an oracle that allows the owner to push prices for queries that have been made.\ncontract CentralizedOracle is OracleInterface, Withdrawable, Testable {\n    using SafeMath for uint;\n\n    // This contract doesn't implement the voting routine, and naively indicates that all requested prices will be\n    // available in a week.\n    uint constant private SECONDS_IN_WEEK = 60*60*24*7;\n\n    // Represents an available price. Have to keep a separate bool to allow for price=0.\n    struct Price {\n        bool isAvailable;\n        int price;\n        // Time the verified price became available.\n        uint verifiedTime;\n    }\n\n    // The two structs below are used in an array and mapping to keep track of prices that have been requested but are\n    // not yet available.\n    struct QueryIndex {\n        bool isValid;\n        uint index;\n    }\n\n    // Represents a (identifier, time) point that has been queried.\n    struct QueryPoint {\n        bytes32 identifier;\n        uint time;\n    }\n\n    // The set of identifiers the oracle can provide verified prices for.\n    mapping(bytes32 => bool) private supportedIdentifiers;\n\n    // Conceptually we want a (time, identifier) -> price map.\n    mapping(bytes32 => mapping(uint => Price)) private verifiedPrices;\n\n    // The mapping and array allow retrieving all the elements in a mapping and finding/deleting elements.\n    // Can we generalize this data structure?\n    mapping(bytes32 => mapping(uint => QueryIndex)) private queryIndices;\n    QueryPoint[] private requestedPrices;\n\n    // Registry to verify that a derivative is approved to use the Oracle.\n    RegistryInterface private registry;\n\n    constructor(address _registry, bool _isTest) public Testable(_isTest) {\n        registry = RegistryInterface(_registry);\n    }\n\n    // Enqueues a request (if a request isn't already present) for the given (identifier, time) pair.\n    function requestPrice(bytes32 identifier, uint time) external returns (uint expectedTime) {\n        // Ensure that the caller has been registered with the Oracle before processing the request.\n        require(registry.isDerivativeRegistered(msg.sender));\n        require(supportedIdentifiers[identifier]);\n        Price storage lookup = verifiedPrices[identifier][time];\n        if (lookup.isAvailable) {\n            // We already have a price, return 0 to indicate that.\n            return 0;\n        } else if (queryIndices[identifier][time].isValid) {\n            // We already have a pending query, don't need to do anything.\n            return getCurrentTime().add(SECONDS_IN_WEEK);\n        } else {\n            // New query, enqueue it for review.\n            queryIndices[identifier][time] = QueryIndex(true, requestedPrices.length);\n            requestedPrices.push(QueryPoint(identifier, time));\n            emit VerifiedPriceRequested(identifier, time);\n            return getCurrentTime().add(SECONDS_IN_WEEK);\n        }\n    }\n\n    // Pushes the verified price for a requested query.\n    function pushPrice(bytes32 identifier, uint time, int price) external onlyOwner {\n        verifiedPrices[identifier][time] = Price(true, price, getCurrentTime());\n        emit VerifiedPriceAvailable(identifier, time, price);\n\n        QueryIndex storage queryIndex = queryIndices[identifier][time];\n        require(queryIndex.isValid, \"Can't push prices that haven't been requested\");\n        // Delete from the array. Instead of shifting the queries over, replace the contents of `indexToReplace` with\n        // the contents of the last index (unless it is the last index).\n        uint indexToReplace = queryIndex.index;\n        delete queryIndices[identifier][time];\n        uint lastIndex = requestedPrices.length.sub(1);\n        if (lastIndex != indexToReplace) {\n            QueryPoint storage queryToCopy = requestedPrices[lastIndex];\n            queryIndices[queryToCopy.identifier][queryToCopy.time].index = indexToReplace;\n            requestedPrices[indexToReplace] = queryToCopy;\n        }\n        requestedPrices.length = requestedPrices.length.sub(1);\n    }\n\n    // Adds the provided identifier as a supported identifier.\n    function addSupportedIdentifier(bytes32 identifier) external onlyOwner {\n        if(!supportedIdentifiers[identifier]) {\n            supportedIdentifiers[identifier] = true;\n            emit AddSupportedIdentifier(identifier);\n        }\n    }\n\n    // Calls emergencyShutdown() on the provided derivative.\n    function callEmergencyShutdown(address derivative) external onlyOwner {\n        AdminInterface admin = AdminInterface(derivative);\n        admin.emergencyShutdown();\n    }\n\n    // Calls remargin() on the provided derivative.\n    function callRemargin(address derivative) external onlyOwner {\n        AdminInterface admin = AdminInterface(derivative);\n        admin.remargin();\n    }\n\n    // Gets a price that has already been resolved.\n    function getPrice(bytes32 identifier, uint time) external view returns (int price) {\n        // Ensure that the caller has been registered with the Oracle before processing the request.\n        require(registry.isDerivativeRegistered(msg.sender));\n        require(supportedIdentifiers[identifier]);\n        Price storage lookup = verifiedPrices[identifier][time];\n        require(lookup.isAvailable);\n        return lookup.price;\n    }\n\n    // Gets the queries that still need verified prices.\n    function getPendingQueries() external view onlyOwner returns (QueryPoint[] memory queryPoints) {\n        return requestedPrices;\n    }\n\n    // Whether the oracle provides verified prices for the provided identifier.\n    function isIdentifierSupported(bytes32 identifier) external view returns (bool isSupported) {\n        return supportedIdentifiers[identifier];\n    }\n\n    event AddSupportedIdentifier(bytes32 indexed identifier);\n}\n",
  "sourcePath": "/Users/matt/git/protocol/contracts/CentralizedOracle.sol",
  "compiler": {
    "name": "solc",
    "version": "0.5.0+commit.1d4f565a.Emscripten.clang"
  },
  "schemaVersion": "3.0.1",
  "updatedAt": "2019-03-06T13:08:39.397Z",
  "devdoc": {
    "methods": {
      "isOwner()": {
        "return": "true if `msg.sender` is the owner of the contract."
      },
      "owner()": {
        "return": "the address of the owner."
      },
      "renounceOwnership()": {
        "details": "Allows the current owner to relinquish control of the contract."
      },
      "transferOwnership(address)": {
        "details": "Allows the current owner to transfer control of the contract to a newOwner.",
        "params": {
          "newOwner": "The address to transfer ownership to."
        }
      }
    }
  },
  "userdoc": {
    "methods": {
      "renounceOwnership()": {
        "notice": "Renouncing to ownership will leave the contract without an owner. It will not be possible to call the functions with the `onlyOwner` modifier anymore."
      }
    }
  }
}