{
  "contractName": "CentralizedStore",
  "abi": [
    {
      "constant": false,
      "inputs": [
        {
          "name": "amount",
          "type": "uint256"
        }
      ],
      "name": "withdraw",
      "outputs": [],
      "payable": false,
      "stateMutability": "nonpayable",
      "type": "function",
      "signature": "0x2e1a7d4d"
    },
    {
      "constant": false,
      "inputs": [],
      "name": "renounceOwnership",
      "outputs": [],
      "payable": false,
      "stateMutability": "nonpayable",
      "type": "function",
      "signature": "0x715018a6"
    },
    {
      "constant": true,
      "inputs": [],
      "name": "owner",
      "outputs": [
        {
          "name": "",
          "type": "address"
        }
      ],
      "payable": false,
      "stateMutability": "view",
      "type": "function",
      "signature": "0x8da5cb5b"
    },
    {
      "constant": true,
      "inputs": [],
      "name": "isOwner",
      "outputs": [
        {
          "name": "",
          "type": "bool"
        }
      ],
      "payable": false,
      "stateMutability": "view",
      "type": "function",
      "signature": "0x8f32d59b"
    },
    {
      "constant": false,
      "inputs": [
        {
          "name": "erc20Address",
          "type": "address"
        },
        {
          "name": "amount",
          "type": "uint256"
        }
      ],
      "name": "withdrawErc20",
      "outputs": [],
      "payable": false,
      "stateMutability": "nonpayable",
      "type": "function",
      "signature": "0xbd1f4b52"
    },
    {
      "constant": false,
      "inputs": [
        {
          "name": "newOwner",
          "type": "address"
        }
      ],
      "name": "transferOwnership",
      "outputs": [],
      "payable": false,
      "stateMutability": "nonpayable",
      "type": "function",
      "signature": "0xf2fde38b"
    },
    {
      "anonymous": false,
      "inputs": [
        {
          "indexed": false,
          "name": "newOracleFee",
          "type": "uint256"
        }
      ],
      "name": "SetFixedOracleFeePerSecond",
      "type": "event",
      "signature": "0xdcfd36531bc8423c808cfc898bda35dc62c78f3a9bf0432cbee35f52a4443ed0"
    },
    {
      "anonymous": false,
      "inputs": [
        {
          "indexed": true,
          "name": "previousOwner",
          "type": "address"
        },
        {
          "indexed": true,
          "name": "newOwner",
          "type": "address"
        }
      ],
      "name": "OwnershipTransferred",
      "type": "event",
      "signature": "0x8be0079c531659141344cd1fd0a4f28419497f9722a3daafe3b4186f6b6457e0"
    },
    {
      "constant": false,
      "inputs": [],
      "name": "payOracleFees",
      "outputs": [],
      "payable": true,
      "stateMutability": "payable",
      "type": "function",
      "signature": "0xcd3a9b24"
    },
    {
      "constant": false,
      "inputs": [
        {
          "name": "erc20Address",
          "type": "address"
        }
      ],
      "name": "payOracleFeesErc20",
      "outputs": [],
      "payable": false,
      "stateMutability": "nonpayable",
      "type": "function",
      "signature": "0x4933a887"
    },
    {
      "constant": false,
      "inputs": [
        {
          "name": "newOracleFee",
          "type": "uint256"
        }
      ],
      "name": "setFixedOracleFeePerSecond",
      "outputs": [],
      "payable": false,
      "stateMutability": "nonpayable",
      "type": "function",
      "signature": "0x469cb5dc"
    },
    {
      "constant": true,
      "inputs": [
        {
          "name": "startTime",
          "type": "uint256"
        },
        {
          "name": "endTime",
          "type": "uint256"
        },
        {
          "name": "pfc",
          "type": "uint256"
        }
      ],
      "name": "computeOracleFees",
      "outputs": [
        {
          "name": "oracleFeeAmount",
          "type": "uint256"
        }
      ],
      "payable": false,
      "stateMutability": "view",
      "type": "function",
      "signature": "0x93d077db"
    }
  ],
  "bytecode": "0x6080604052336000806101000a81548173ffffffffffffffffffffffffffffffffffffffff021916908373ffffffffffffffffffffffffffffffffffffffff1602179055506000809054906101000a900473ffffffffffffffffffffffffffffffffffffffff1673ffffffffffffffffffffffffffffffffffffffff16600073ffffffffffffffffffffffffffffffffffffffff167f8be0079c531659141344cd1fd0a4f28419497f9722a3daafe3b4186f6b6457e060405160405180910390a3610b51806100cf6000396000f3fe6080604052600436106100a4576000357c0100000000000000000000000000000000000000000000000000000000900463ffffffff1680632e1a7d4d146100a9578063469cb5dc146100e45780634933a8871461011f578063715018a6146101705780638da5cb5b146101875780638f32d59b146101de57806393d077db1461020d578063bd1f4b5214610270578063cd3a9b24146102cb578063f2fde38b146102d5575b600080fd5b3480156100b557600080fd5b506100e2600480360360208110156100cc57600080fd5b8101908080359060200190929190505050610326565b005b3480156100f057600080fd5b5061011d6004803603602081101561010757600080fd5b8101908080359060200190929190505050610383565b005b34801561012b57600080fd5b5061016e6004803603602081101561014257600080fd5b81019080803573ffffffffffffffffffffffffffffffffffffffff1690602001909291905050506103ed565b005b34801561017c57600080fd5b5061018561062f565b005b34801561019357600080fd5b5061019c610701565b604051808273ffffffffffffffffffffffffffffffffffffffff1673ffffffffffffffffffffffffffffffffffffffff16815260200191505060405180910390f35b3480156101ea57600080fd5b506101f361072a565b604051808215151515815260200191505060405180910390f35b34801561021957600080fd5b5061025a6004803603606081101561023057600080fd5b81019080803590602001909291908035906020019092919080359060200190929190505050610781565b6040518082815260200191505060405180910390f35b34801561027c57600080fd5b506102c96004803603604081101561029357600080fd5b81019080803573ffffffffffffffffffffffffffffffffffffffff16906020019092919080359060200190929190505050610825565b005b6102d361092b565b005b3480156102e157600080fd5b50610324600480360360208110156102f857600080fd5b81019080803573ffffffffffffffffffffffffffffffffffffffff16906020019092919050505061093c565b005b61032e61072a565b151561033957600080fd5b3373ffffffffffffffffffffffffffffffffffffffff166108fc829081150290604051600060405180830381858888f1935050505015801561037f573d6000803e3d6000fd5b5050565b61038b61072a565b151561039657600080fd5b670de0b6b3a7640000811015156103ac57600080fd5b806001819055507fdcfd36531bc8423c808cfc898bda35dc62c78f3a9bf0432cbee35f52a4443ed0816040518082815260200191505060405180910390a150565b600081905060008173ffffffffffffffffffffffffffffffffffffffff1663dd62ed3e33306040518363ffffffff167c0100000000000000000000000000000000000000000000000000000000028152600401808373ffffffffffffffffffffffffffffffffffffffff1673ffffffffffffffffffffffffffffffffffffffff1681526020018273ffffffffffffffffffffffffffffffffffffffff1673ffffffffffffffffffffffffffffffffffffffff1681526020019250505060206040518083038186803b1580156104c157600080fd5b505afa1580156104d5573d6000803e3d6000fd5b505050506040513d60208110156104eb57600080fd5b8101908080519060200190929190505050905060008111151561050d57600080fd5b8173ffffffffffffffffffffffffffffffffffffffff166323b872dd3330846040518463ffffffff167c0100000000000000000000000000000000000000000000000000000000028152600401808473ffffffffffffffffffffffffffffffffffffffff1673ffffffffffffffffffffffffffffffffffffffff1681526020018373ffffffffffffffffffffffffffffffffffffffff1673ffffffffffffffffffffffffffffffffffffffff1681526020018281526020019350505050602060405180830381600087803b1580156105e457600080fd5b505af11580156105f8573d6000803e3d6000fd5b505050506040513d602081101561060e57600080fd5b8101908080519060200190929190505050151561062a57600080fd5b505050565b61063761072a565b151561064257600080fd5b600073ffffffffffffffffffffffffffffffffffffffff166000809054906101000a900473ffffffffffffffffffffffffffffffffffffffff1673ffffffffffffffffffffffffffffffffffffffff167f8be0079c531659141344cd1fd0a4f28419497f9722a3daafe3b4186f6b6457e060405160405180910390a360008060006101000a81548173ffffffffffffffffffffffffffffffffffffffff021916908373ffffffffffffffffffffffffffffffffffffffff160217905550565b60008060009054906101000a900473ffffffffffffffffffffffffffffffffffffffff16905090565b60008060009054906101000a900473ffffffffffffffffffffffffffffffffffffffff1673ffffffffffffffffffffffffffffffffffffffff163373ffffffffffffffffffffffffffffffffffffffff1614905090565b600080610797858561095b90919063ffffffff16565b905060006107c2826107b46001548761097d90919063ffffffff16565b61097d90919063ffffffff16565b90506107df670de0b6b3a7640000826109bb90919063ffffffff16565b925060006107fe670de0b6b3a7640000836109e590919063ffffffff16565b14151561081c57610819600184610a0a90919063ffffffff16565b92505b50509392505050565b61082d61072a565b151561083857600080fd5b60008290508073ffffffffffffffffffffffffffffffffffffffff1663a9059cbb33846040518363ffffffff167c0100000000000000000000000000000000000000000000000000000000028152600401808373ffffffffffffffffffffffffffffffffffffffff1673ffffffffffffffffffffffffffffffffffffffff16815260200182815260200192505050602060405180830381600087803b1580156108e057600080fd5b505af11580156108f4573d6000803e3d6000fd5b505050506040513d602081101561090a57600080fd5b8101908080519060200190929190505050151561092657600080fd5b505050565b60003411151561093a57600080fd5b565b61094461072a565b151561094f57600080fd5b61095881610a2b565b50565b600082821115151561096c57600080fd5b600082840390508091505092915050565b60008083141561099057600090506109b5565b600082840290508284828115156109a357fe5b041415156109b057600080fd5b809150505b92915050565b600080821115156109cb57600080fd5b600082848115156109d857fe5b0490508091505092915050565b60008082141515156109f657600080fd5b8183811515610a0157fe5b06905092915050565b6000808284019050838110151515610a2157600080fd5b8091505092915050565b600073ffffffffffffffffffffffffffffffffffffffff168173ffffffffffffffffffffffffffffffffffffffff1614151515610a6757600080fd5b8073ffffffffffffffffffffffffffffffffffffffff166000809054906101000a900473ffffffffffffffffffffffffffffffffffffffff1673ffffffffffffffffffffffffffffffffffffffff167f8be0079c531659141344cd1fd0a4f28419497f9722a3daafe3b4186f6b6457e060405160405180910390a3806000806101000a81548173ffffffffffffffffffffffffffffffffffffffff021916908373ffffffffffffffffffffffffffffffffffffffff1602179055505056fea165627a7a7230582044c2b4955c47705998751887fefe6b4dad8c062d361ca8884ecf3af10ae01f240029",
  "source": "/*\n  CentralizedStore implementation.\n \n  An implementation of StoreInterface with a fee per second and withdraw functions for the owner.\n*/\npragma solidity ^0.5.0;\n\nimport \"openzeppelin-solidity/contracts/math/SafeMath.sol\";\nimport \"./StoreInterface.sol\";\nimport \"./Withdrawable.sol\";\n\n\n// An implementation of StoreInterface that can accept Oracle fees in ETH or any arbitrary ERC20 token.\ncontract CentralizedStore is StoreInterface, Withdrawable {\n\n    using SafeMath for uint;\n\n    uint private fixedOracleFeePerSecond; // Percentage of 10^18. E.g., 1e18 is 100% Oracle fee.\n    uint private constant FP_SCALING_FACTOR = 10**18;\n\n    function payOracleFees() external payable {\n        require(msg.value > 0);\n    }\n\n    function payOracleFeesErc20(address erc20Address) external {\n        IERC20 erc20 = IERC20(erc20Address);\n        uint authorizedAmount = erc20.allowance(msg.sender, address(this));\n        require(authorizedAmount > 0);\n        require(erc20.transferFrom(msg.sender, address(this), authorizedAmount));\n    }\n\n    // Sets a new Oracle fee per second.\n    function setFixedOracleFeePerSecond(uint newOracleFee) external onlyOwner {\n        // Oracle fees at or over 100% don't make sense.\n        require(newOracleFee < FP_SCALING_FACTOR);\n        fixedOracleFeePerSecond = newOracleFee;\n        emit SetFixedOracleFeePerSecond(newOracleFee);\n    }\n\n    function computeOracleFees(uint startTime, uint endTime, uint pfc) external view returns (uint oracleFeeAmount) {\n        uint timeRange = endTime.sub(startTime);\n\n        // The oracle fees before being divided by the FP_SCALING_FACTOR.\n        uint oracleFeesPreDivision = pfc.mul(fixedOracleFeePerSecond).mul(timeRange);\n        oracleFeeAmount = oracleFeesPreDivision.div(FP_SCALING_FACTOR);\n\n        // If there is any remainder, add 1. This causes the division to ceil rather than floor the result.\n        if (oracleFeesPreDivision.mod(FP_SCALING_FACTOR) != 0) {\n            oracleFeeAmount = oracleFeeAmount.add(1);\n        }\n    }\n\n    event SetFixedOracleFeePerSecond(uint newOracleFee);\n}\n",
  "sourcePath": "/Users/matt/git/protocol/contracts/CentralizedStore.sol",
  "compiler": {
    "name": "solc",
    "version": "0.5.0+commit.1d4f565a.Emscripten.clang"
  },
  "schemaVersion": "3.0.1",
  "updatedAt": "2019-03-14T03:02:37.236Z",
  "devdoc": {
    "methods": {
      "isOwner()": {
        "return": "true if `msg.sender` is the owner of the contract."
      },
      "owner()": {
        "return": "the address of the owner."
      },
      "renounceOwnership()": {
        "details": "Allows the current owner to relinquish control of the contract."
      },
      "transferOwnership(address)": {
        "details": "Allows the current owner to transfer control of the contract to a newOwner.",
        "params": {
          "newOwner": "The address to transfer ownership to."
        }
      }
    }
  },
  "userdoc": {
    "methods": {
      "renounceOwnership()": {
        "notice": "Renouncing to ownership will leave the contract without an owner. It will not be possible to call the functions with the `onlyOwner` modifier anymore."
      }
    }
  }
}