{
  "contractName": "LeveragedReturnCalculatorTest",
  "abi": [
    {
      "constant": true,
      "inputs": [],
      "name": "leverage",
      "outputs": [
        {
          "name": "_leverage",
          "type": "int256"
        }
      ],
      "payable": false,
      "stateMutability": "view",
      "type": "function"
    },
    {
      "constant": false,
      "inputs": [
        {
          "name": "amount",
          "type": "uint256"
        }
      ],
      "name": "withdraw",
      "outputs": [],
      "payable": false,
      "stateMutability": "nonpayable",
      "type": "function"
    },
    {
      "constant": true,
      "inputs": [
        {
          "name": "oldPrice",
          "type": "int256"
        },
        {
          "name": "newPrice",
          "type": "int256"
        }
      ],
      "name": "computeReturn",
      "outputs": [
        {
          "name": "assetReturn",
          "type": "int256"
        }
      ],
      "payable": false,
      "stateMutability": "view",
      "type": "function"
    },
    {
      "constant": false,
      "inputs": [],
      "name": "renounceOwnership",
      "outputs": [],
      "payable": false,
      "stateMutability": "nonpayable",
      "type": "function"
    },
    {
      "constant": true,
      "inputs": [],
      "name": "owner",
      "outputs": [
        {
          "name": "",
          "type": "address"
        }
      ],
      "payable": false,
      "stateMutability": "view",
      "type": "function"
    },
    {
      "constant": true,
      "inputs": [],
      "name": "isOwner",
      "outputs": [
        {
          "name": "",
          "type": "bool"
        }
      ],
      "payable": false,
      "stateMutability": "view",
      "type": "function"
    },
    {
      "constant": false,
      "inputs": [
        {
          "name": "erc20Address",
          "type": "address"
        },
        {
          "name": "amount",
          "type": "uint256"
        }
      ],
      "name": "withdrawErc20",
      "outputs": [],
      "payable": false,
      "stateMutability": "nonpayable",
      "type": "function"
    },
    {
      "constant": false,
      "inputs": [
        {
          "name": "newOwner",
          "type": "address"
        }
      ],
      "name": "transferOwnership",
      "outputs": [],
      "payable": false,
      "stateMutability": "nonpayable",
      "type": "function"
    },
    {
      "inputs": [
        {
          "name": "_leverageMultiplier",
          "type": "int256"
        }
      ],
      "payable": false,
      "stateMutability": "nonpayable",
      "type": "constructor"
    },
    {
      "anonymous": false,
      "inputs": [
        {
          "indexed": true,
          "name": "previousOwner",
          "type": "address"
        },
        {
          "indexed": true,
          "name": "newOwner",
          "type": "address"
        }
      ],
      "name": "OwnershipTransferred",
      "type": "event"
    },
    {
      "constant": false,
      "inputs": [
        {
          "name": "oldPrice",
          "type": "int256"
        },
        {
          "name": "newPrice",
          "type": "int256"
        }
      ],
      "name": "storeReturn",
      "outputs": [],
      "payable": false,
      "stateMutability": "nonpayable",
      "type": "function"
    },
    {
      "constant": true,
      "inputs": [],
      "name": "echidna_signage",
      "outputs": [
        {
          "name": "",
          "type": "bool"
        }
      ],
      "payable": false,
      "stateMutability": "view",
      "type": "function"
    }
  ],
  "bytecode": "0x608060405234801561001057600080fd5b50604051602080610be18339810180604052602081101561003057600080fd5b810190808051906020019092919050505080336000806101000a81548173ffffffffffffffffffffffffffffffffffffffff021916908373ffffffffffffffffffffffffffffffffffffffff1602179055506000809054906101000a900473ffffffffffffffffffffffffffffffffffffffff1673ffffffffffffffffffffffffffffffffffffffff16600073ffffffffffffffffffffffffffffffffffffffff167f8be0079c531659141344cd1fd0a4f28419497f9722a3daafe3b4186f6b6457e060405160405180910390a36000811415151561010e57600080fd5b806001819055505050610abb806101266000396000f3fe6080604052600436106100a4576000357c0100000000000000000000000000000000000000000000000000000000900463ffffffff1680632c86d98e146100a95780632e1a7d4d146100d4578063377eb02a1461010f57806355e5968214610154578063715018a6146101ad5780638da5cb5b146101c45780638f32d59b1461021b578063bd1f4b521461024a578063c3cf41bc146102a5578063f2fde38b146102d4575b600080fd5b3480156100b557600080fd5b506100be610325565b6040518082815260200191505060405180910390f35b3480156100e057600080fd5b5061010d600480360360208110156100f757600080fd5b810190808035906020019092919050505061032f565b005b34801561011b57600080fd5b506101526004803603604081101561013257600080fd5b81019080803590602001909291908035906020019092919050505061038c565b005b34801561016057600080fd5b506101976004803603604081101561017757600080fd5b81019080803590602001909291908035906020019092919050505061045a565b6040518082815260200191505060405180910390f35b3480156101b957600080fd5b506101c2610516565b005b3480156101d057600080fd5b506101d96105e8565b604051808273ffffffffffffffffffffffffffffffffffffffff1673ffffffffffffffffffffffffffffffffffffffff16815260200191505060405180910390f35b34801561022757600080fd5b50610230610611565b604051808215151515815260200191505060405180910390f35b34801561025657600080fd5b506102a36004803603604081101561026d57600080fd5b81019080803573ffffffffffffffffffffffffffffffffffffffff16906020019092919080359060200190929190505050610668565b005b3480156102b157600080fd5b506102ba61076e565b604051808215151515815260200191505060405180910390f35b3480156102e057600080fd5b50610323600480360360208110156102f757600080fd5b81019080803573ffffffffffffffffffffffffffffffffffffffff169060200190929190505050610815565b005b6000600154905090565b610337610611565b151561034257600080fd5b3373ffffffffffffffffffffffffffffffffffffffff166108fc829081150290604051600060405180830381858888f19350505050158015610388573d6000803e3d6000fd5b5050565b60003073ffffffffffffffffffffffffffffffffffffffff166355e5968284846040518363ffffffff167c0100000000000000000000000000000000000000000000000000000000028152600401808381526020018281526020019250505060206040518083038186803b15801561040357600080fd5b505afa158015610417573d6000803e3d6000fd5b505050506040513d602081101561042d57600080fd5b81019080805190602001909291905050509050826002819055508160038190555080600481905550505050565b60008083141561046d5760009050610510565b600061049c8461048e670de0b6b3a76400008661083490919063ffffffff16565b6108cc90919063ffffffff16565b90506104cd6001546104bf670de0b6b3a76400008461095190919063ffffffff16565b61083490919063ffffffff16565b9150600084121561050e5761050b7fffffffffffffffffffffffffffffffffffffffffffffffffffffffffffffffff8361083490919063ffffffff16565b91505b505b92915050565b61051e610611565b151561052957600080fd5b600073ffffffffffffffffffffffffffffffffffffffff166000809054906101000a900473ffffffffffffffffffffffffffffffffffffffff1673ffffffffffffffffffffffffffffffffffffffff167f8be0079c531659141344cd1fd0a4f28419497f9722a3daafe3b4186f6b6457e060405160405180910390a360008060006101000a81548173ffffffffffffffffffffffffffffffffffffffff021916908373ffffffffffffffffffffffffffffffffffffffff160217905550565b60008060009054906101000a900473ffffffffffffffffffffffffffffffffffffffff16905090565b60008060009054906101000a900473ffffffffffffffffffffffffffffffffffffffff1673ffffffffffffffffffffffffffffffffffffffff163373ffffffffffffffffffffffffffffffffffffffff1614905090565b610670610611565b151561067b57600080fd5b60008290508073ffffffffffffffffffffffffffffffffffffffff1663a9059cbb33846040518363ffffffff167c0100000000000000000000000000000000000000000000000000000000028152600401808373ffffffffffffffffffffffffffffffffffffffff1673ffffffffffffffffffffffffffffffffffffffff16815260200182815260200192505050602060405180830381600087803b15801561072357600080fd5b505af1158015610737573d6000803e3d6000fd5b505050506040513d602081101561074d57600080fd5b8101908080519060200190929190505050151561076957600080fd5b505050565b6000806002541415610787576000600454149050610812565b600180541215156107ba576002546003541215156107ad57600060045412159050610812565b6000600454129050610812565b7fffffffffffffffffffffffffffffffffffffffffffffffffffffffffffffffff60015413151561080d5760025460035412151561080057600060045413159050610812565b6000600454139050610812565b600090505b90565b61081d610611565b151561082857600080fd5b61083181610995565b50565b60008083141561084757600090506108c6565b7fffffffffffffffffffffffffffffffffffffffffffffffffffffffffffffffff8314801561089557507f800000000000000000000000000000000000000000000000000000000000000082145b1515156108a157600080fd5b600082840290508284828115156108b457fe5b051415156108c157600080fd5b809150505b92915050565b60008082141515156108dd57600080fd5b7fffffffffffffffffffffffffffffffffffffffffffffffffffffffffffffffff8214801561092b57507f800000000000000000000000000000000000000000000000000000000000000083145b15151561093757600080fd5b6000828481151561094457fe5b0590508091505092915050565b60008082840390506000831215801561096a5750838113155b80610980575060008312801561097f57508381135b5b151561098b57600080fd5b8091505092915050565b600073ffffffffffffffffffffffffffffffffffffffff168173ffffffffffffffffffffffffffffffffffffffff16141515156109d157600080fd5b8073ffffffffffffffffffffffffffffffffffffffff166000809054906101000a900473ffffffffffffffffffffffffffffffffffffffff1673ffffffffffffffffffffffffffffffffffffffff167f8be0079c531659141344cd1fd0a4f28419497f9722a3daafe3b4186f6b6457e060405160405180910390a3806000806101000a81548173ffffffffffffffffffffffffffffffffffffffff021916908373ffffffffffffffffffffffffffffffffffffffff1602179055505056fea165627a7a72305820f47450f6f19f53baeba1bce1fa2f0121b44cea324e90dbd2fc58d5b79ec852b80029",
  "source": "/*\n  Leveraged Return Calculator Echidna Tests.\n*/\npragma solidity ^0.5.0;\n\nimport \"../LeveragedReturnCalculator.sol\";\n\n\ncontract LeveragedReturnCalculatorTest is LeveragedReturnCalculator {\n    // Store in/out for computeReturn().\n    int private oldPriceInput;\n    int private newPriceInput;\n    int private returnOutput;\n\n    // solhint-disable-next-line no-empty-blocks\n    constructor(int _leverageMultiplier) public LeveragedReturnCalculator(_leverageMultiplier) {}\n\n    function storeReturn(int oldPrice, int newPrice) external {\n        int assetReturn = this.computeReturn(oldPrice, newPrice);\n        oldPriceInput = oldPrice;\n        newPriceInput = newPrice;\n        returnOutput = assetReturn;\n    }\n\n    // solhint-disable-next-line func-name-mixedcase\n    function echidna_signage() external view returns (bool) {\n        if (oldPriceInput == 0) {\n            // Special case.\n            return returnOutput == 0;\n        }\n\n        if (leverageMultiplier >= 1) {\n            // Positive leverage means that the price difference should be in the same direction as the return.\n            if (newPriceInput >= oldPriceInput) {\n                return returnOutput >= 0;\n            } else {\n                return returnOutput < 0;\n            }\n        } else if (leverageMultiplier <= -1) {\n            // Negative leverage means the price difference should be in the opposite direction of the return.\n            if (newPriceInput >= oldPriceInput) {\n                return returnOutput <= 0;\n            } else {\n                return returnOutput > 0;\n            }\n        } else {\n            // Leverage == 0.\n            // Should not be possible.\n            return false;\n        }\n    }\n}\n\n\n// Instantiations of different leverage tests.\n/* solhint-disable no-empty-blocks, two-lines-top-level-separator */\ncontract Leveraged1xTest is LeveragedReturnCalculatorTest(1) {}\ncontract Leveraged4xTest is LeveragedReturnCalculatorTest(4) {}\ncontract LeveragedShort1xTest is LeveragedReturnCalculatorTest(-1) {}\ncontract LeveragedShort3xTest is LeveragedReturnCalculatorTest(-3) {}\n",
  "sourcePath": "/Users/matt/git/protocol/contracts/echidna_tests/LeveragedReturnCalculatorTest.sol",
  "compiler": {
    "name": "solc",
    "version": "0.5.0+commit.1d4f565a.Emscripten.clang"
  },
  "schemaVersion": "3.0.1",
  "updatedAt": "2019-03-01T21:35:31.258Z",
  "devdoc": {
    "methods": {
      "isOwner()": {
        "return": "true if `msg.sender` is the owner of the contract."
      },
      "owner()": {
        "return": "the address of the owner."
      },
      "renounceOwnership()": {
        "details": "Allows the current owner to relinquish control of the contract."
      },
      "transferOwnership(address)": {
        "details": "Allows the current owner to transfer control of the contract to a newOwner.",
        "params": {
          "newOwner": "The address to transfer ownership to."
        }
      }
    }
  },
  "userdoc": {
    "methods": {
      "renounceOwnership()": {
        "notice": "Renouncing to ownership will leave the contract without an owner. It will not be possible to call the functions with the `onlyOwner` modifier anymore."
      }
    }
  }
}