{
  "contractName": "LeveragedReturnCalculator",
  "abi": [
    {
      "constant": false,
      "inputs": [
        {
          "name": "amount",
          "type": "uint256"
        }
      ],
      "name": "withdraw",
      "outputs": [],
      "payable": false,
      "stateMutability": "nonpayable",
      "type": "function",
      "signature": "0x2e1a7d4d"
    },
    {
      "constant": false,
      "inputs": [],
      "name": "renounceOwnership",
      "outputs": [],
      "payable": false,
      "stateMutability": "nonpayable",
      "type": "function",
      "signature": "0x715018a6"
    },
    {
      "constant": true,
      "inputs": [],
      "name": "owner",
      "outputs": [
        {
          "name": "",
          "type": "address"
        }
      ],
      "payable": false,
      "stateMutability": "view",
      "type": "function",
      "signature": "0x8da5cb5b"
    },
    {
      "constant": true,
      "inputs": [],
      "name": "isOwner",
      "outputs": [
        {
          "name": "",
          "type": "bool"
        }
      ],
      "payable": false,
      "stateMutability": "view",
      "type": "function",
      "signature": "0x8f32d59b"
    },
    {
      "constant": false,
      "inputs": [
        {
          "name": "erc20Address",
          "type": "address"
        },
        {
          "name": "amount",
          "type": "uint256"
        }
      ],
      "name": "withdrawErc20",
      "outputs": [],
      "payable": false,
      "stateMutability": "nonpayable",
      "type": "function",
      "signature": "0xbd1f4b52"
    },
    {
      "constant": false,
      "inputs": [
        {
          "name": "newOwner",
          "type": "address"
        }
      ],
      "name": "transferOwnership",
      "outputs": [],
      "payable": false,
      "stateMutability": "nonpayable",
      "type": "function",
      "signature": "0xf2fde38b"
    },
    {
      "inputs": [
        {
          "name": "_leverageMultiplier",
          "type": "int256"
        }
      ],
      "payable": false,
      "stateMutability": "nonpayable",
      "type": "constructor",
      "signature": "constructor"
    },
    {
      "anonymous": false,
      "inputs": [
        {
          "indexed": true,
          "name": "previousOwner",
          "type": "address"
        },
        {
          "indexed": true,
          "name": "newOwner",
          "type": "address"
        }
      ],
      "name": "OwnershipTransferred",
      "type": "event",
      "signature": "0x8be0079c531659141344cd1fd0a4f28419497f9722a3daafe3b4186f6b6457e0"
    },
    {
      "constant": true,
      "inputs": [
        {
          "name": "oldPrice",
          "type": "int256"
        },
        {
          "name": "newPrice",
          "type": "int256"
        }
      ],
      "name": "computeReturn",
      "outputs": [
        {
          "name": "assetReturn",
          "type": "int256"
        }
      ],
      "payable": false,
      "stateMutability": "view",
      "type": "function",
      "signature": "0x55e59682"
    },
    {
      "constant": true,
      "inputs": [],
      "name": "leverage",
      "outputs": [
        {
          "name": "_leverage",
          "type": "int256"
        }
      ],
      "payable": false,
      "stateMutability": "view",
      "type": "function",
      "signature": "0x2c86d98e"
    }
  ],
  "bytecode": "0x608060405234801561001057600080fd5b506040516020806109e08339810180604052602081101561003057600080fd5b8101908080519060200190929190505050336000806101000a81548173ffffffffffffffffffffffffffffffffffffffff021916908373ffffffffffffffffffffffffffffffffffffffff1602179055506000809054906101000a900473ffffffffffffffffffffffffffffffffffffffff1673ffffffffffffffffffffffffffffffffffffffff16600073ffffffffffffffffffffffffffffffffffffffff167f8be0079c531659141344cd1fd0a4f28419497f9722a3daafe3b4186f6b6457e060405160405180910390a36000811415151561010d57600080fd5b80600181905550506108bc806101246000396000f3fe60806040526004361061008e576000357c0100000000000000000000000000000000000000000000000000000000900463ffffffff1680632c86d98e146100935780632e1a7d4d146100be57806355e59682146100f9578063715018a6146101525780638da5cb5b146101695780638f32d59b146101c0578063bd1f4b52146101ef578063f2fde38b1461024a575b600080fd5b34801561009f57600080fd5b506100a861029b565b6040518082815260200191505060405180910390f35b3480156100ca57600080fd5b506100f7600480360360208110156100e157600080fd5b81019080803590602001909291905050506102a5565b005b34801561010557600080fd5b5061013c6004803603604081101561011c57600080fd5b810190808035906020019092919080359060200190929190505050610302565b6040518082815260200191505060405180910390f35b34801561015e57600080fd5b506101676103be565b005b34801561017557600080fd5b5061017e610490565b604051808273ffffffffffffffffffffffffffffffffffffffff1673ffffffffffffffffffffffffffffffffffffffff16815260200191505060405180910390f35b3480156101cc57600080fd5b506101d56104b9565b604051808215151515815260200191505060405180910390f35b3480156101fb57600080fd5b506102486004803603604081101561021257600080fd5b81019080803573ffffffffffffffffffffffffffffffffffffffff16906020019092919080359060200190929190505050610510565b005b34801561025657600080fd5b506102996004803603602081101561026d57600080fd5b81019080803573ffffffffffffffffffffffffffffffffffffffff169060200190929190505050610616565b005b6000600154905090565b6102ad6104b9565b15156102b857600080fd5b3373ffffffffffffffffffffffffffffffffffffffff166108fc829081150290604051600060405180830381858888f193505050501580156102fe573d6000803e3d6000fd5b5050565b60008083141561031557600090506103b8565b600061034484610336670de0b6b3a76400008661063590919063ffffffff16565b6106cd90919063ffffffff16565b9050610375600154610367670de0b6b3a76400008461075290919063ffffffff16565b61063590919063ffffffff16565b915060008412156103b6576103b37fffffffffffffffffffffffffffffffffffffffffffffffffffffffffffffffff8361063590919063ffffffff16565b91505b505b92915050565b6103c66104b9565b15156103d157600080fd5b600073ffffffffffffffffffffffffffffffffffffffff166000809054906101000a900473ffffffffffffffffffffffffffffffffffffffff1673ffffffffffffffffffffffffffffffffffffffff167f8be0079c531659141344cd1fd0a4f28419497f9722a3daafe3b4186f6b6457e060405160405180910390a360008060006101000a81548173ffffffffffffffffffffffffffffffffffffffff021916908373ffffffffffffffffffffffffffffffffffffffff160217905550565b60008060009054906101000a900473ffffffffffffffffffffffffffffffffffffffff16905090565b60008060009054906101000a900473ffffffffffffffffffffffffffffffffffffffff1673ffffffffffffffffffffffffffffffffffffffff163373ffffffffffffffffffffffffffffffffffffffff1614905090565b6105186104b9565b151561052357600080fd5b60008290508073ffffffffffffffffffffffffffffffffffffffff1663a9059cbb33846040518363ffffffff167c0100000000000000000000000000000000000000000000000000000000028152600401808373ffffffffffffffffffffffffffffffffffffffff1673ffffffffffffffffffffffffffffffffffffffff16815260200182815260200192505050602060405180830381600087803b1580156105cb57600080fd5b505af11580156105df573d6000803e3d6000fd5b505050506040513d60208110156105f557600080fd5b8101908080519060200190929190505050151561061157600080fd5b505050565b61061e6104b9565b151561062957600080fd5b61063281610796565b50565b60008083141561064857600090506106c7565b7fffffffffffffffffffffffffffffffffffffffffffffffffffffffffffffffff8314801561069657507f800000000000000000000000000000000000000000000000000000000000000082145b1515156106a257600080fd5b600082840290508284828115156106b557fe5b051415156106c257600080fd5b809150505b92915050565b60008082141515156106de57600080fd5b7fffffffffffffffffffffffffffffffffffffffffffffffffffffffffffffffff8214801561072c57507f800000000000000000000000000000000000000000000000000000000000000083145b15151561073857600080fd5b6000828481151561074557fe5b0590508091505092915050565b60008082840390506000831215801561076b5750838113155b80610781575060008312801561078057508381135b5b151561078c57600080fd5b8091505092915050565b600073ffffffffffffffffffffffffffffffffffffffff168173ffffffffffffffffffffffffffffffffffffffff16141515156107d257600080fd5b8073ffffffffffffffffffffffffffffffffffffffff166000809054906101000a900473ffffffffffffffffffffffffffffffffffffffff1673ffffffffffffffffffffffffffffffffffffffff167f8be0079c531659141344cd1fd0a4f28419497f9722a3daafe3b4186f6b6457e060405160405180910390a3806000806101000a81548173ffffffffffffffffffffffffffffffffffffffff021916908373ffffffffffffffffffffffffffffffffffffffff1602179055505056fea165627a7a72305820b834cf53b41e4802dd107690f74678d79f33916520e3d6ef146dd5bae8913c4d0029",
  "source": "/*\n  Leveraged Return Calculator.\n\n  Implements a return calculator that applies leverage to the input prices.\n*/\npragma solidity ^0.5.0;\n\nimport \"./ReturnCalculatorInterface.sol\";\nimport \"./Withdrawable.sol\";\nimport \"openzeppelin-solidity/contracts/drafts/SignedSafeMath.sol\";\n\n\ncontract LeveragedReturnCalculator is ReturnCalculatorInterface, Withdrawable {\n    using SignedSafeMath for int;\n\n    // Leverage value. Negative values return the leveraged short return.\n    // Examples:\n    // 1 -> unlevered long\n    // 2 -> 2x levered long\n    // -1 -> unlevered short\n    // -2 -> 2x levered short\n    int internal leverageMultiplier;\n    int private constant FP_SCALING_FACTOR = 10**18;\n\n    constructor(int _leverageMultiplier) public {\n        require(_leverageMultiplier != 0);\n        leverageMultiplier = _leverageMultiplier;\n    }\n\n    function computeReturn(int oldPrice, int newPrice) external view returns (int assetReturn) {\n        if (oldPrice == 0) {\n            // To avoid a divide-by-zero, just return 0 instead of hitting an exception.\n            return 0;\n        }\n\n        // Compute the underlying asset return: +1% would be 1.01 (* 1 ether).\n        int underlyingAssetReturn = newPrice.mul(FP_SCALING_FACTOR).div(oldPrice);\n\n        // Compute the RoR of the underlying asset and multiply by leverageMultiplier to get the modified return.\n        assetReturn = underlyingAssetReturn.sub(FP_SCALING_FACTOR).mul(leverageMultiplier);\n\n\n        // If oldPrice is < 0, we need to flip the sign to keep returns positively correlated with\n        // leverageMultiplier * price diffs.\n        if (oldPrice < 0) {\n            assetReturn = assetReturn.mul(-1);\n        }\n    }\n\n    function leverage() external view returns (int _leverage) {\n        return leverageMultiplier;\n    }\n}\n",
  "sourcePath": "/Users/matt/git/protocol/contracts/LeveragedReturnCalculator.sol",
  "compiler": {
    "name": "solc",
    "version": "0.5.0+commit.1d4f565a.Emscripten.clang"
  },
  "schemaVersion": "3.0.1",
  "updatedAt": "2019-03-06T13:08:39.372Z",
  "devdoc": {
    "methods": {
      "isOwner()": {
        "return": "true if `msg.sender` is the owner of the contract."
      },
      "owner()": {
        "return": "the address of the owner."
      },
      "renounceOwnership()": {
        "details": "Allows the current owner to relinquish control of the contract."
      },
      "transferOwnership(address)": {
        "details": "Allows the current owner to transfer control of the contract to a newOwner.",
        "params": {
          "newOwner": "The address to transfer ownership to."
        }
      }
    }
  },
  "userdoc": {
    "methods": {
      "renounceOwnership()": {
        "notice": "Renouncing to ownership will leave the contract without an owner. It will not be possible to call the functions with the `onlyOwner` modifier anymore."
      }
    }
  }
}