{
  "contractName": "ManualPriceFeed",
  "abi": [
    {
      "constant": false,
      "inputs": [
        {
          "name": "_time",
          "type": "uint256"
        }
      ],
      "name": "setCurrentTime",
      "outputs": [],
      "payable": false,
      "stateMutability": "nonpayable",
      "type": "function",
      "signature": "0x22f8e566"
    },
    {
      "constant": true,
      "inputs": [],
      "name": "getCurrentTime",
      "outputs": [
        {
          "name": "",
          "type": "uint256"
        }
      ],
      "payable": false,
      "stateMutability": "view",
      "type": "function",
      "signature": "0x29cb924d"
    },
    {
      "constant": false,
      "inputs": [
        {
          "name": "amount",
          "type": "uint256"
        }
      ],
      "name": "withdraw",
      "outputs": [],
      "payable": false,
      "stateMutability": "nonpayable",
      "type": "function",
      "signature": "0x2e1a7d4d"
    },
    {
      "constant": false,
      "inputs": [],
      "name": "renounceOwnership",
      "outputs": [],
      "payable": false,
      "stateMutability": "nonpayable",
      "type": "function",
      "signature": "0x715018a6"
    },
    {
      "constant": true,
      "inputs": [],
      "name": "owner",
      "outputs": [
        {
          "name": "",
          "type": "address"
        }
      ],
      "payable": false,
      "stateMutability": "view",
      "type": "function",
      "signature": "0x8da5cb5b"
    },
    {
      "constant": true,
      "inputs": [],
      "name": "isOwner",
      "outputs": [
        {
          "name": "",
          "type": "bool"
        }
      ],
      "payable": false,
      "stateMutability": "view",
      "type": "function",
      "signature": "0x8f32d59b"
    },
    {
      "constant": true,
      "inputs": [],
      "name": "isTest",
      "outputs": [
        {
          "name": "",
          "type": "bool"
        }
      ],
      "payable": false,
      "stateMutability": "view",
      "type": "function",
      "signature": "0x9381a345"
    },
    {
      "constant": false,
      "inputs": [
        {
          "name": "erc20Address",
          "type": "address"
        },
        {
          "name": "amount",
          "type": "uint256"
        }
      ],
      "name": "withdrawErc20",
      "outputs": [],
      "payable": false,
      "stateMutability": "nonpayable",
      "type": "function",
      "signature": "0xbd1f4b52"
    },
    {
      "constant": false,
      "inputs": [
        {
          "name": "newOwner",
          "type": "address"
        }
      ],
      "name": "transferOwnership",
      "outputs": [],
      "payable": false,
      "stateMutability": "nonpayable",
      "type": "function",
      "signature": "0xf2fde38b"
    },
    {
      "inputs": [
        {
          "name": "_isTest",
          "type": "bool"
        }
      ],
      "payable": false,
      "stateMutability": "nonpayable",
      "type": "constructor",
      "signature": "constructor"
    },
    {
      "anonymous": false,
      "inputs": [
        {
          "indexed": true,
          "name": "previousOwner",
          "type": "address"
        },
        {
          "indexed": true,
          "name": "newOwner",
          "type": "address"
        }
      ],
      "name": "OwnershipTransferred",
      "type": "event",
      "signature": "0x8be0079c531659141344cd1fd0a4f28419497f9722a3daafe3b4186f6b6457e0"
    },
    {
      "anonymous": false,
      "inputs": [
        {
          "indexed": true,
          "name": "identifier",
          "type": "bytes32"
        },
        {
          "indexed": true,
          "name": "time",
          "type": "uint256"
        },
        {
          "indexed": false,
          "name": "price",
          "type": "int256"
        }
      ],
      "name": "PriceUpdated",
      "type": "event",
      "signature": "0x7b68a704e7137c4430422c835b46aecc2dd2d5e3eb0ec8fd92785c9e97648bd9"
    },
    {
      "constant": false,
      "inputs": [
        {
          "name": "identifier",
          "type": "bytes32"
        },
        {
          "name": "publishTime",
          "type": "uint256"
        },
        {
          "name": "newPrice",
          "type": "int256"
        }
      ],
      "name": "pushLatestPrice",
      "outputs": [],
      "payable": false,
      "stateMutability": "nonpayable",
      "type": "function",
      "signature": "0x88be38ac"
    },
    {
      "constant": true,
      "inputs": [
        {
          "name": "identifier",
          "type": "bytes32"
        }
      ],
      "name": "isIdentifierSupported",
      "outputs": [
        {
          "name": "isSupported",
          "type": "bool"
        }
      ],
      "payable": false,
      "stateMutability": "view",
      "type": "function",
      "signature": "0x90978d1b"
    },
    {
      "constant": true,
      "inputs": [
        {
          "name": "identifier",
          "type": "bytes32"
        }
      ],
      "name": "latestPrice",
      "outputs": [
        {
          "name": "publishTime",
          "type": "uint256"
        },
        {
          "name": "price",
          "type": "int256"
        }
      ],
      "payable": false,
      "stateMutability": "view",
      "type": "function",
      "signature": "0x4eec7c2b"
    }
  ],
  "bytecode": "0x608060405234801561001057600080fd5b50604051602080610af48339810180604052602081101561003057600080fd5b810190808051906020019092919050505080336000806101000a81548173ffffffffffffffffffffffffffffffffffffffff021916908373ffffffffffffffffffffffffffffffffffffffff1602179055506000809054906101000a900473ffffffffffffffffffffffffffffffffffffffff1673ffffffffffffffffffffffffffffffffffffffff16600073ffffffffffffffffffffffffffffffffffffffff167f8be0079c531659141344cd1fd0a4f28419497f9722a3daafe3b4186f6b6457e060405160405180910390a380600060146101000a81548160ff021916908315150217905550801561012657426001819055505b50506109bd806101376000396000f3fe6080604052600436106100ba576000357c0100000000000000000000000000000000000000000000000000000000900463ffffffff16806322f8e566146100bf57806329cb924d146100fa5780632e1a7d4d146101255780634eec7c2b14610160578063715018a6146101b657806388be38ac146101cd5780638da5cb5b1461021c5780638f32d59b1461027357806390978d1b146102a25780639381a345146102f5578063bd1f4b5214610324578063f2fde38b1461037f575b600080fd5b3480156100cb57600080fd5b506100f8600480360360208110156100e257600080fd5b81019080803590602001909291905050506103d0565b005b34801561010657600080fd5b5061010f610408565b6040518082815260200191505060405180910390f35b34801561013157600080fd5b5061015e6004803603602081101561014857600080fd5b810190808035906020019092919050505061042f565b005b34801561016c57600080fd5b506101996004803603602081101561018357600080fd5b810190808035906020019092919050505061048c565b604051808381526020018281526020019250505060405180910390f35b3480156101c257600080fd5b506101cb6104da565b005b3480156101d957600080fd5b5061021a600480360360608110156101f057600080fd5b810190808035906020019092919080359060200190929190803590602001909291905050506105ac565b005b34801561022857600080fd5b5061023161068a565b604051808273ffffffffffffffffffffffffffffffffffffffff1673ffffffffffffffffffffffffffffffffffffffff16815260200191505060405180910390f35b34801561027f57600080fd5b506102886106b3565b604051808215151515815260200191505060405180910390f35b3480156102ae57600080fd5b506102db600480360360208110156102c557600080fd5b810190808035906020019092919050505061070a565b604051808215151515815260200191505060405180910390f35b34801561030157600080fd5b5061030a61071c565b604051808215151515815260200191505060405180910390f35b34801561033057600080fd5b5061037d6004803603604081101561034757600080fd5b81019080803573ffffffffffffffffffffffffffffffffffffffff1690602001909291908035906020019092919050505061072f565b005b34801561038b57600080fd5b506103ce600480360360208110156103a257600080fd5b81019080803573ffffffffffffffffffffffffffffffffffffffff169060200190929190505050610835565b005b6103d86106b3565b15156103e357600080fd5b600060149054906101000a900460ff1615156103fe57600080fd5b8060018190555050565b60008060149054906101000a900460ff161561042857600154905061042c565b4290505b90565b6104376106b3565b151561044257600080fd5b3373ffffffffffffffffffffffffffffffffffffffff166108fc829081150290604051600060405180830381858888f19350505050158015610488573d6000803e3d6000fd5b5050565b60008061049883610854565b15156104a357600080fd5b6002600084815260200190815260200160002060000154915060026000848152602001908152602001600020600101549050915091565b6104e26106b3565b15156104ed57600080fd5b600073ffffffffffffffffffffffffffffffffffffffff166000809054906101000a900473ffffffffffffffffffffffffffffffffffffffff1673ffffffffffffffffffffffffffffffffffffffff167f8be0079c531659141344cd1fd0a4f28419497f9722a3daafe3b4186f6b6457e060405160405180910390a360008060006101000a81548173ffffffffffffffffffffffffffffffffffffffff021916908373ffffffffffffffffffffffffffffffffffffffff160217905550565b6105b46106b3565b15156105bf57600080fd5b6105db6103846105cd610408565b61087690919063ffffffff16565b82111515156105e957600080fd5b60026000848152602001908152602001600020600001548211151561060d57600080fd5b60408051908101604052808381526020018281525060026000858152602001908152602001600020600082015181600001556020820151816001015590505081837f7b68a704e7137c4430422c835b46aecc2dd2d5e3eb0ec8fd92785c9e97648bd9836040518082815260200191505060405180910390a3505050565b60008060009054906101000a900473ffffffffffffffffffffffffffffffffffffffff16905090565b60008060009054906101000a900473ffffffffffffffffffffffffffffffffffffffff1673ffffffffffffffffffffffffffffffffffffffff163373ffffffffffffffffffffffffffffffffffffffff1614905090565b600061071582610854565b9050919050565b600060149054906101000a900460ff1681565b6107376106b3565b151561074257600080fd5b60008290508073ffffffffffffffffffffffffffffffffffffffff1663a9059cbb33846040518363ffffffff167c0100000000000000000000000000000000000000000000000000000000028152600401808373ffffffffffffffffffffffffffffffffffffffff1673ffffffffffffffffffffffffffffffffffffffff16815260200182815260200192505050602060405180830381600087803b1580156107ea57600080fd5b505af11580156107fe573d6000803e3d6000fd5b505050506040513d602081101561081457600080fd5b8101908080519060200190929190505050151561083057600080fd5b505050565b61083d6106b3565b151561084857600080fd5b61085181610897565b50565b6000806002600084815260200190815260200160002060000154119050919050565b600080828401905083811015151561088d57600080fd5b8091505092915050565b600073ffffffffffffffffffffffffffffffffffffffff168173ffffffffffffffffffffffffffffffffffffffff16141515156108d357600080fd5b8073ffffffffffffffffffffffffffffffffffffffff166000809054906101000a900473ffffffffffffffffffffffffffffffffffffffff1673ffffffffffffffffffffffffffffffffffffffff167f8be0079c531659141344cd1fd0a4f28419497f9722a3daafe3b4186f6b6457e060405160405180910390a3806000806101000a81548173ffffffffffffffffffffffffffffffffffffffff021916908373ffffffffffffffffffffffffffffffffffffffff1602179055505056fea165627a7a72305820e8eb4770c918650881858e49ba48a2ec2c0b5072920071427926f6b3cf0b81b50029",
  "source": "/*\n  ManualPriceFeed implementation.\n\n Implementation of PriceFeedInterface that allows manually updating prices.\n*/\npragma solidity ^0.5.0;\n\nimport \"openzeppelin-solidity/contracts/math/SafeMath.sol\";\nimport \"openzeppelin-solidity/contracts/ownership/Ownable.sol\";\nimport \"./PriceFeedInterface.sol\";\nimport \"./Testable.sol\";\nimport \"./Withdrawable.sol\";\n\n\n// Implementation of PriceFeedInterface with the ability to push prices.\ncontract ManualPriceFeed is PriceFeedInterface, Withdrawable, Testable {\n\n    using SafeMath for uint;\n\n    // A single price update.\n    struct PriceTick {\n        uint timestamp;\n        int price;\n    }\n\n    // Mapping from identifier to the latest price for that identifier.\n    mapping(bytes32 => PriceTick) private prices;\n\n    // Ethereum timestamp tolerance.\n    // Note: this is technically the amount of time that a block timestamp can be *ahead* of the current time. However,\n    // we are assuming that blocks will never get more than this amount *behind* the current time. The only requirement\n    // limiting how early the timestamp can be is that it must have a later timestamp than its parent. However,\n    // this bound will probably work reasonably well in both directions.\n    uint constant private BLOCK_TIMESTAMP_TOLERANCE = 900;\n\n    constructor(bool _isTest) public Testable(_isTest) {} // solhint-disable-line no-empty-blocks\n\n    // Adds a new price to the series for a given identifier. The pushed publishTime must be later than the last time\n    // pushed so far.\n    function pushLatestPrice(bytes32 identifier, uint publishTime, int newPrice) external onlyOwner {\n        require(publishTime <= getCurrentTime().add(BLOCK_TIMESTAMP_TOLERANCE));\n        require(publishTime > prices[identifier].timestamp);\n        prices[identifier] = PriceTick(publishTime, newPrice);\n        emit PriceUpdated(identifier, publishTime, newPrice);\n    }\n\n    // Whether this feed has ever published any prices for this identifier.\n    function isIdentifierSupported(bytes32 identifier) external view returns (bool isSupported) {\n        isSupported = _isIdentifierSupported(identifier);\n    }\n\n    function latestPrice(bytes32 identifier) external view returns (uint publishTime, int price) {\n        require(_isIdentifierSupported(identifier));\n        publishTime = prices[identifier].timestamp;\n        price = prices[identifier].price;\n    }\n\n    function _isIdentifierSupported(bytes32 identifier) private view returns (bool isSupported) {\n        isSupported = prices[identifier].timestamp > 0;\n    }\n}\n",
  "sourcePath": "/Users/matt/git/protocol/contracts/ManualPriceFeed.sol",
  "compiler": {
    "name": "solc",
    "version": "0.5.0+commit.1d4f565a.Emscripten.clang"
  },
  "schemaVersion": "3.0.1",
  "updatedAt": "2019-03-14T03:02:37.230Z",
  "devdoc": {
    "methods": {
      "isOwner()": {
        "return": "true if `msg.sender` is the owner of the contract."
      },
      "owner()": {
        "return": "the address of the owner."
      },
      "renounceOwnership()": {
        "details": "Allows the current owner to relinquish control of the contract."
      },
      "transferOwnership(address)": {
        "details": "Allows the current owner to transfer control of the contract to a newOwner.",
        "params": {
          "newOwner": "The address to transfer ownership to."
        }
      }
    }
  },
  "userdoc": {
    "methods": {
      "renounceOwnership()": {
        "notice": "Renouncing to ownership will leave the contract without an owner. It will not be possible to call the functions with the `onlyOwner` modifier anymore."
      }
    }
  }
}