{
  "contractName": "MetaCoin",
  "abi": [
    {
      "constant": true,
      "inputs": [],
      "name": "shouldBeAlwaysFalse",
      "outputs": [
        {
          "name": "",
          "type": "bool"
        }
      ],
      "payable": false,
      "stateMutability": "view",
      "type": "function"
    },
    {
      "constant": false,
      "inputs": [
        {
          "name": "key",
          "type": "uint256"
        },
        {
          "name": "value",
          "type": "uint256"
        }
      ],
      "name": "setMetadata",
      "outputs": [],
      "payable": false,
      "stateMutability": "nonpayable",
      "type": "function"
    }
  ],
  "bytecode": "0x608060405234801561001057600080fd5b5061018a806100206000396000f3fe60806040526004361061004c576000357c0100000000000000000000000000000000000000000000000000000000900463ffffffff16806376d7d5c61461005157806394c709ed14610080575b600080fd5b34801561005d57600080fd5b506100666100c5565b604051808215151515815260200191505060405180910390f35b34801561008c57600080fd5b506100c3600480360360408110156100a357600080fd5b8101908080359060200190929190803590602001909291905050506100ca565b005b600081565b816000805490501115156100eb57600182016000816100e9919061010d565b505b806000838154811015156100fb57fe5b90600052602060002001819055505050565b815481835581811115610134578183600052602060002091820191016101339190610139565b5b505050565b61015b91905b8082111561015757600081600090555060010161013f565b5090565b9056fea165627a7a723058206d7a24caea0420c67428f3f9a4ed36ccc5097773fc35efc569b053c1c6a94c070029",
  "source": "pragma solidity ^0.5.0;\n\n\n// This contract is only used to get a Manticore test up and running. It has no imports and an obvious bug.\n// TODO(ptare): Delete this contract once we have a manticore test running for a real contract.\ncontract MetaCoin {\n    uint256[] metadata;\n    bool public constant shouldBeAlwaysFalse = false;\n\n    function setMetadata(uint256 key, uint256 value) public {\n        // Setting a large uint for key can end up overwriting the storage for the unrelated variable\n        // `shouldAlwaysBeFalse`.\n        if (metadata.length <= key) {\n               metadata.length = key + 1;\n        }\n        metadata[key] = value;\n    }\n}\n",
  "sourcePath": "/Users/hal2001/Documents/GitHub/protocol/contracts/MetaCoin.sol",
  "compiler": {
    "name": "solc",
    "version": "0.5.0+commit.1d4f565a.Emscripten.clang"
  },
  "schemaVersion": "3.0.1",
  "updatedAt": "2019-03-15T22:24:20.533Z",
  "devdoc": {
    "methods": {}
  },
  "userdoc": {
    "methods": {}
  }
}