{
  "contractName": "Registry",
  "abi": [
    {
      "constant": false,
      "inputs": [
        {
          "name": "amount",
          "type": "uint256"
        }
      ],
      "name": "withdraw",
      "outputs": [],
      "payable": false,
      "stateMutability": "nonpayable",
      "type": "function",
      "signature": "0x2e1a7d4d"
    },
    {
      "constant": false,
      "inputs": [],
      "name": "renounceOwnership",
      "outputs": [],
      "payable": false,
      "stateMutability": "nonpayable",
      "type": "function",
      "signature": "0x715018a6"
    },
    {
      "constant": true,
      "inputs": [],
      "name": "owner",
      "outputs": [
        {
          "name": "",
          "type": "address"
        }
      ],
      "payable": false,
      "stateMutability": "view",
      "type": "function",
      "signature": "0x8da5cb5b"
    },
    {
      "constant": true,
      "inputs": [],
      "name": "isOwner",
      "outputs": [
        {
          "name": "",
          "type": "bool"
        }
      ],
      "payable": false,
      "stateMutability": "view",
      "type": "function",
      "signature": "0x8f32d59b"
    },
    {
      "constant": false,
      "inputs": [
        {
          "name": "erc20Address",
          "type": "address"
        },
        {
          "name": "amount",
          "type": "uint256"
        }
      ],
      "name": "withdrawErc20",
      "outputs": [],
      "payable": false,
      "stateMutability": "nonpayable",
      "type": "function",
      "signature": "0xbd1f4b52"
    },
    {
      "constant": false,
      "inputs": [
        {
          "name": "newOwner",
          "type": "address"
        }
      ],
      "name": "transferOwnership",
      "outputs": [],
      "payable": false,
      "stateMutability": "nonpayable",
      "type": "function",
      "signature": "0xf2fde38b"
    },
    {
      "anonymous": false,
      "inputs": [
        {
          "indexed": true,
          "name": "derivativeAddress",
          "type": "address"
        },
        {
          "indexed": false,
          "name": "parties",
          "type": "address[]"
        }
      ],
      "name": "RegisterDerivative",
      "type": "event",
      "signature": "0x963bc1f772947cbb0a0fe892b9237fa7938830931f5b46c8eab0c38a2053e26a"
    },
    {
      "anonymous": false,
      "inputs": [
        {
          "indexed": true,
          "name": "addedDerivativeCreator",
          "type": "address"
        }
      ],
      "name": "AddDerivativeCreator",
      "type": "event",
      "signature": "0xd5ad34068676fe7b332c6f3c7fbd234e5a84c990b622791368271bf37bcf837a"
    },
    {
      "anonymous": false,
      "inputs": [
        {
          "indexed": true,
          "name": "removedDerivativeCreator",
          "type": "address"
        }
      ],
      "name": "RemoveDerivativeCreator",
      "type": "event",
      "signature": "0x3addeeb52973fdb264faecc23b69d7c5787f7604ff21837236206f86b150b949"
    },
    {
      "anonymous": false,
      "inputs": [
        {
          "indexed": true,
          "name": "previousOwner",
          "type": "address"
        },
        {
          "indexed": true,
          "name": "newOwner",
          "type": "address"
        }
      ],
      "name": "OwnershipTransferred",
      "type": "event",
      "signature": "0x8be0079c531659141344cd1fd0a4f28419497f9722a3daafe3b4186f6b6457e0"
    },
    {
      "constant": false,
      "inputs": [
        {
          "name": "parties",
          "type": "address[]"
        },
        {
          "name": "derivativeAddress",
          "type": "address"
        }
      ],
      "name": "registerDerivative",
      "outputs": [],
      "payable": false,
      "stateMutability": "nonpayable",
      "type": "function",
      "signature": "0x8014b1dc"
    },
    {
      "constant": false,
      "inputs": [
        {
          "name": "derivativeCreator",
          "type": "address"
        }
      ],
      "name": "addDerivativeCreator",
      "outputs": [],
      "payable": false,
      "stateMutability": "nonpayable",
      "type": "function",
      "signature": "0x7e79599d"
    },
    {
      "constant": false,
      "inputs": [
        {
          "name": "derivativeCreator",
          "type": "address"
        }
      ],
      "name": "removeDerivativeCreator",
      "outputs": [],
      "payable": false,
      "stateMutability": "nonpayable",
      "type": "function",
      "signature": "0xcc5a0e13"
    },
    {
      "constant": true,
      "inputs": [
        {
          "name": "derivative",
          "type": "address"
        }
      ],
      "name": "isDerivativeRegistered",
      "outputs": [
        {
          "name": "isRegistered",
          "type": "bool"
        }
      ],
      "payable": false,
      "stateMutability": "view",
      "type": "function",
      "signature": "0x8a3ca36b"
    },
    {
      "constant": true,
      "inputs": [
        {
          "name": "party",
          "type": "address"
        }
      ],
      "name": "getRegisteredDerivatives",
      "outputs": [
        {
          "components": [
            {
              "name": "derivativeAddress",
              "type": "address"
            },
            {
              "name": "derivativeCreator",
              "type": "address"
            }
          ],
          "name": "derivatives",
          "type": "tuple[]"
        }
      ],
      "payable": false,
      "stateMutability": "view",
      "type": "function",
      "signature": "0x35a027a0"
    },
    {
      "constant": true,
      "inputs": [],
      "name": "getAllRegisteredDerivatives",
      "outputs": [
        {
          "components": [
            {
              "name": "derivativeAddress",
              "type": "address"
            },
            {
              "name": "derivativeCreator",
              "type": "address"
            }
          ],
          "name": "derivatives",
          "type": "tuple[]"
        }
      ],
      "payable": false,
      "stateMutability": "view",
      "type": "function",
      "signature": "0x647fcf18"
    },
    {
      "constant": true,
      "inputs": [
        {
          "name": "derivativeCreator",
          "type": "address"
        }
      ],
      "name": "isDerivativeCreatorAuthorized",
      "outputs": [
        {
          "name": "isAuthorized",
          "type": "bool"
        }
      ],
      "payable": false,
      "stateMutability": "view",
      "type": "function",
      "signature": "0xbcf08606"
    }
  ],
  "bytecode": "0x6080604052336000806101000a81548173ffffffffffffffffffffffffffffffffffffffff021916908373ffffffffffffffffffffffffffffffffffffffff1602179055506000809054906101000a900473ffffffffffffffffffffffffffffffffffffffff1673ffffffffffffffffffffffffffffffffffffffff16600073ffffffffffffffffffffffffffffffffffffffff167f8be0079c531659141344cd1fd0a4f28419497f9722a3daafe3b4186f6b6457e060405160405180910390a3611646806100cf6000396000f3fe6080604052600436106100c5576000357c0100000000000000000000000000000000000000000000000000000000900463ffffffff1680632e1a7d4d146100ca57806335a027a0146100f3578063647fcf1814610130578063715018a61461015b5780637e79599d146101725780638014b1dc1461019b5780638a3ca36b146101c45780638da5cb5b146102015780638f32d59b1461022c578063bcf0860614610257578063bd1f4b5214610294578063cc5a0e13146102bd578063f2fde38b146102e6575b600080fd5b3480156100d657600080fd5b506100f160048036036100ec919081019061132f565b61030f565b005b3480156100ff57600080fd5b5061011a60048036036101159190810190611249565b61036c565b60405161012791906114df565b60405180910390f35b34801561013c57600080fd5b50610145610648565b60405161015291906114df565b60405180910390f35b34801561016757600080fd5b50610170610753565b005b34801561017e57600080fd5b5061019960048036036101949190810190611249565b610825565b005b3480156101a757600080fd5b506101c260048036036101bd91908101906112ae565b61092a565b005b3480156101d057600080fd5b506101eb60048036036101e69190810190611249565b610d02565b6040516101f89190611501565b60405180910390f35b34801561020d57600080fd5b50610216610d74565b6040516102239190611479565b60405180910390f35b34801561023857600080fd5b50610241610d9d565b60405161024e9190611501565b60405180910390f35b34801561026357600080fd5b5061027e60048036036102799190810190611249565b610df4565b60405161028b9190611501565b60405180910390f35b3480156102a057600080fd5b506102bb60048036036102b69190810190611272565b610e4a565b005b3480156102c957600080fd5b506102e460048036036102df9190810190611249565b610f1b565b005b3480156102f257600080fd5b5061030d60048036036103089190810190611249565b61101f565b005b610317610d9d565b151561032257600080fd5b3373ffffffffffffffffffffffffffffffffffffffff166108fc829081150290604051600060405180830381858888f19350505050158015610368573d6000803e3d6000fd5b5050565b6060806001805490506040519080825280602002602001820160405280156103ae57816020015b61039b61117b565b8152602001906001900390816103935790505b509050600080905060008090505b6001805490508110156105a65760006001828154811015156103da57fe5b90600052602060002090600202019050600360008260000160009054906101000a900473ffffffffffffffffffffffffffffffffffffffff1673ffffffffffffffffffffffffffffffffffffffff1673ffffffffffffffffffffffffffffffffffffffff16815260200190815260200160002060000160008773ffffffffffffffffffffffffffffffffffffffff1673ffffffffffffffffffffffffffffffffffffffff16815260200190815260200160002060009054906101000a900460ff161561058a57806040805190810160405290816000820160009054906101000a900473ffffffffffffffffffffffffffffffffffffffff1673ffffffffffffffffffffffffffffffffffffffff1673ffffffffffffffffffffffffffffffffffffffff1681526020016001820160009054906101000a900473ffffffffffffffffffffffffffffffffffffffff1673ffffffffffffffffffffffffffffffffffffffff1673ffffffffffffffffffffffffffffffffffffffff1681525050848481518110151561056657fe5b9060200190602002018190525061058760018461103e90919063ffffffff16565b92505b5061059f60018261103e90919063ffffffff16565b90506103bc565b50806040519080825280602002602001820160405280156105e157816020015b6105ce61117b565b8152602001906001900390816105c65790505b50925060008090505b8181101561064057828181518110151561060057fe5b90602001906020020151848281518110151561061857fe5b9060200190602002018190525061063960018261103e90919063ffffffff16565b90506105ea565b505050919050565b60606001805480602002602001604051908101604052809291908181526020016000905b8282101561074a57838290600052602060002090600202016040805190810160405290816000820160009054906101000a900473ffffffffffffffffffffffffffffffffffffffff1673ffffffffffffffffffffffffffffffffffffffff1673ffffffffffffffffffffffffffffffffffffffff1681526020016001820160009054906101000a900473ffffffffffffffffffffffffffffffffffffffff1673ffffffffffffffffffffffffffffffffffffffff1673ffffffffffffffffffffffffffffffffffffffff16815250508152602001906001019061066c565b50505050905090565b61075b610d9d565b151561076657600080fd5b600073ffffffffffffffffffffffffffffffffffffffff166000809054906101000a900473ffffffffffffffffffffffffffffffffffffffff1673ffffffffffffffffffffffffffffffffffffffff167f8be0079c531659141344cd1fd0a4f28419497f9722a3daafe3b4186f6b6457e060405160405180910390a360008060006101000a81548173ffffffffffffffffffffffffffffffffffffffff021916908373ffffffffffffffffffffffffffffffffffffffff160217905550565b61082d610d9d565b151561083857600080fd5b600460008273ffffffffffffffffffffffffffffffffffffffff1673ffffffffffffffffffffffffffffffffffffffff16815260200190815260200160002060009054906101000a900460ff161515610927576001600460008373ffffffffffffffffffffffffffffffffffffffff1673ffffffffffffffffffffffffffffffffffffffff16815260200190815260200160002060006101000a81548160ff0219169083151502179055508073ffffffffffffffffffffffffffffffffffffffff167fd5ad34068676fe7b332c6f3c7fbd234e5a84c990b622791368271bf37bcf837a60405160405180910390a25b50565b600460003373ffffffffffffffffffffffffffffffffffffffff1673ffffffffffffffffffffffffffffffffffffffff16815260200190815260200160002060009054906101000a900460ff16151561098257600080fd5b6000600260008373ffffffffffffffffffffffffffffffffffffffff1673ffffffffffffffffffffffffffffffffffffffff1681526020019081526020016000209050600060028111156109d257fe5b8160000160009054906101000a900460ff1660028111156109ef57fe5b1415156109fb57600080fd5b60018160000160006101000a81548160ff02191690836002811115610a1c57fe5b0217905550600160408051908101604052808473ffffffffffffffffffffffffffffffffffffffff1681526020013373ffffffffffffffffffffffffffffffffffffffff168152509080600181540180825580915050906001820390600052602060002090600202016000909192909190915060008201518160000160006101000a81548173ffffffffffffffffffffffffffffffffffffffff021916908373ffffffffffffffffffffffffffffffffffffffff16021790555060208201518160010160006101000a81548173ffffffffffffffffffffffffffffffffffffffff021916908373ffffffffffffffffffffffffffffffffffffffff160217905550505050610b386001808054905061105f90919063ffffffff16565b8160000160016101000a8154816fffffffffffffffffffffffffffffffff02191690836fffffffffffffffffffffffffffffffff1602179055506000600360008473ffffffffffffffffffffffffffffffffffffffff1673ffffffffffffffffffffffffffffffffffffffff168152602001908152602001600020905060008090505b85859050811015610c655760018260000160008888858181101515610bdc57fe5b9050602002013573ffffffffffffffffffffffffffffffffffffffff1673ffffffffffffffffffffffffffffffffffffffff1673ffffffffffffffffffffffffffffffffffffffff16815260200190815260200160002060006101000a81548160ff021916908315150217905550610c5e60018261103e90919063ffffffff16565b9050610bbb565b506060858580806020026020016040519081016040528093929190818152602001838360200280828437600081840152601f19601f8201169050808301925050505050505090508373ffffffffffffffffffffffffffffffffffffffff167f963bc1f772947cbb0a0fe892b9237fa7938830931f5b46c8eab0c38a2053e26a82604051610cf291906114bd565b60405180910390a2505050505050565b600060016002811115610d1157fe5b600260008473ffffffffffffffffffffffffffffffffffffffff1673ffffffffffffffffffffffffffffffffffffffff16815260200190815260200160002060000160009054906101000a900460ff166002811115610d6c57fe5b149050919050565b60008060009054906101000a900473ffffffffffffffffffffffffffffffffffffffff16905090565b60008060009054906101000a900473ffffffffffffffffffffffffffffffffffffffff1673ffffffffffffffffffffffffffffffffffffffff163373ffffffffffffffffffffffffffffffffffffffff1614905090565b6000600460008373ffffffffffffffffffffffffffffffffffffffff1673ffffffffffffffffffffffffffffffffffffffff16815260200190815260200160002060009054906101000a900460ff169050919050565b610e52610d9d565b1515610e5d57600080fd5b60008290508073ffffffffffffffffffffffffffffffffffffffff1663a9059cbb33846040518363ffffffff167c0100000000000000000000000000000000000000000000000000000000028152600401610eb9929190611494565b602060405180830381600087803b158015610ed357600080fd5b505af1158015610ee7573d6000803e3d6000fd5b505050506040513d601f19601f82011682018060405250610f0b9190810190611306565b1515610f1657600080fd5b505050565b610f23610d9d565b1515610f2e57600080fd5b600460008273ffffffffffffffffffffffffffffffffffffffff1673ffffffffffffffffffffffffffffffffffffffff16815260200190815260200160002060009054906101000a900460ff161561101c576000600460008373ffffffffffffffffffffffffffffffffffffffff1673ffffffffffffffffffffffffffffffffffffffff16815260200190815260200160002060006101000a81548160ff0219169083151502179055508073ffffffffffffffffffffffffffffffffffffffff167f3addeeb52973fdb264faecc23b69d7c5787f7604ff21837236206f86b150b94960405160405180910390a25b50565b611027610d9d565b151561103257600080fd5b61103b81611081565b50565b600080828401905083811015151561105557600080fd5b8091505092915050565b600082821115151561107057600080fd5b600082840390508091505092915050565b600073ffffffffffffffffffffffffffffffffffffffff168173ffffffffffffffffffffffffffffffffffffffff16141515156110bd57600080fd5b8073ffffffffffffffffffffffffffffffffffffffff166000809054906101000a900473ffffffffffffffffffffffffffffffffffffffff1673ffffffffffffffffffffffffffffffffffffffff167f8be0079c531659141344cd1fd0a4f28419497f9722a3daafe3b4186f6b6457e060405160405180910390a3806000806101000a81548173ffffffffffffffffffffffffffffffffffffffff021916908373ffffffffffffffffffffffffffffffffffffffff16021790555050565b6040805190810160405280600073ffffffffffffffffffffffffffffffffffffffff168152602001600073ffffffffffffffffffffffffffffffffffffffff1681525090565b60006111cd82356115ae565b905092915050565b60008083601f84011215156111e957600080fd5b8235905067ffffffffffffffff81111561120257600080fd5b60208301915083602082028301111561121a57600080fd5b9250929050565b600061122d82516115c0565b905092915050565b600061124182356115cc565b905092915050565b60006020828403121561125b57600080fd5b6000611269848285016111c1565b91505092915050565b6000806040838503121561128557600080fd5b6000611293858286016111c1565b92505060206112a485828601611235565b9150509250929050565b6000806000604084860312156112c357600080fd5b600084013567ffffffffffffffff8111156112dd57600080fd5b6112e9868287016111d5565b935093505060206112fc868287016111c1565b9150509250925092565b60006020828403121561131857600080fd5b600061132684828501611221565b91505092915050565b60006020828403121561134157600080fd5b600061134f84828501611235565b91505092915050565b611361816115d6565b82525050565b61137081611566565b82525050565b600061138182611536565b8084526020840193506113938361151c565b60005b828110156113c5576113a9868351611367565b6113b28261154c565b9150602086019550600181019050611396565b50849250505092915050565b60006113dc82611541565b8084526020840193506113ee83611529565b60005b828110156114205761140486835161143b565b61140d82611559565b91506040860195506001810190506113f1565b50849250505092915050565b61143581611578565b82525050565b6040820160008201516114516000850182611367565b5060208201516114646020850182611367565b50505050565b611473816115a4565b82525050565b600060208201905061148e6000830184611367565b92915050565b60006040820190506114a96000830185611358565b6114b6602083018461146a565b9392505050565b600060208201905081810360008301526114d78184611376565b905092915050565b600060208201905081810360008301526114f981846113d1565b905092915050565b6000602082019050611516600083018461142c565b92915050565b6000602082019050919050565b6000602082019050919050565b600081519050919050565b600081519050919050565b6000602082019050919050565b6000602082019050919050565b600061157182611584565b9050919050565b60008115159050919050565b600073ffffffffffffffffffffffffffffffffffffffff82169050919050565b6000819050919050565b60006115b982611584565b9050919050565b60008115159050919050565b6000819050919050565b60006115e1826115e8565b9050919050565b60006115f3826115fa565b9050919050565b600061160582611584565b905091905056fea265627a7a7230582078f5351171b56a6fa5e5c924a545600adb1ed3f9578aa8f4d525cee7d4efd27f6c6578706572696d656e74616cf50037",
  "source": "pragma solidity ^0.5.0;\n\nimport \"./RegistryInterface.sol\";\nimport \"./Withdrawable.sol\";\n\nimport \"openzeppelin-solidity/contracts/ownership/Ownable.sol\";\nimport \"openzeppelin-solidity/contracts/math/SafeMath.sol\";\n\npragma experimental ABIEncoderV2;\n\n\ncontract Registry is RegistryInterface, Withdrawable {\n\n    using SafeMath for uint;\n\n    // Array of all registeredDerivatives that are approved to use the UMA Oracle.\n    RegisteredDerivative[] private registeredDerivatives;\n\n    // This enum is required because a WasValid state is required to ensure that derivatives cannot be re-registered.\n    enum PointerValidity {\n        Invalid,\n        Valid,\n        WasValid\n    }\n\n    struct Pointer {\n        PointerValidity valid;\n        uint128 index;\n    }\n\n    // Maps from derivative address to a pointer that refers to that RegisteredDerivative in registeredDerivatives.\n    mapping(address => Pointer) private derivativePointers;\n\n    // Note: this must be stored outside of the RegisteredDerivative because mappings cannot be deleted and copied\n    // like normal data. This could be stored in the Pointer struct, but storing it there would muddy the purpose\n    // of the Pointer struct and break separation of concern between referential data and data.\n    struct PartiesMap {\n        mapping(address => bool) parties;\n    }\n\n    // Maps from derivative address to the set of parties that are involved in that derivative.\n    mapping(address => PartiesMap) private derivativesToParties;\n\n    // Maps from derivative creator address to whether that derivative creator has been approved to register contracts.\n    mapping(address => bool) private derivativeCreators;\n\n    modifier onlyApprovedDerivativeCreator {\n        require(derivativeCreators[msg.sender]);\n        _;\n    }\n\n    function registerDerivative(address[] calldata parties, address derivativeAddress)\n        external\n        onlyApprovedDerivativeCreator\n    {\n        // Create derivative pointer.\n        Pointer storage pointer = derivativePointers[derivativeAddress];\n\n        // Ensure that the pointer was not valid in the past (derivatives cannot be re-registered or double\n        // registered).\n        require(pointer.valid == PointerValidity.Invalid);\n        pointer.valid = PointerValidity.Valid;\n\n        registeredDerivatives.push(RegisteredDerivative(derivativeAddress, msg.sender));\n\n        // No length check necessary because we should never hit (2^127 - 1) derivatives.\n        pointer.index = uint128(registeredDerivatives.length.sub(1));\n\n        // Set up PartiesMap for this derivative.\n        PartiesMap storage partiesMap = derivativesToParties[derivativeAddress];\n        for (uint i = 0; i < parties.length; i = i.add(1)) {\n            partiesMap.parties[parties[i]] = true;\n        }\n\n        address[] memory partiesForEvent = parties;\n        emit RegisterDerivative(derivativeAddress, partiesForEvent);\n    }\n\n    function addDerivativeCreator(address derivativeCreator) external onlyOwner {\n        if (!derivativeCreators[derivativeCreator]) {\n            derivativeCreators[derivativeCreator] = true;\n            emit AddDerivativeCreator(derivativeCreator);\n        }\n    }\n\n    function removeDerivativeCreator(address derivativeCreator) external onlyOwner {\n        if (derivativeCreators[derivativeCreator]) {\n            derivativeCreators[derivativeCreator] = false;\n            emit RemoveDerivativeCreator(derivativeCreator);\n        }\n    }\n\n    function isDerivativeRegistered(address derivative) external view returns (bool isRegistered) {\n        return derivativePointers[derivative].valid == PointerValidity.Valid;\n    }\n\n    function getRegisteredDerivatives(address party) external view returns (RegisteredDerivative[] memory derivatives) {\n        // This is not ideal - we must statically allocate memory arrays. To be safe, we make a temporary array as long\n        // as registeredDerivatives. We populate it with any derivatives that involve the provided party. Then, we copy\n        // the array over to the return array, which is allocated using the correct size. Note: this is done by double\n        // copying each value rather than storing some referential info (like indices) in memory to reduce the number\n        // of storage reads. This is because storage reads are far more expensive than extra memory space (~100:1).\n        RegisteredDerivative[] memory tmpDerivativeArray = new RegisteredDerivative[](registeredDerivatives.length);\n        uint outputIndex = 0;\n        for (uint i = 0; i < registeredDerivatives.length; i = i.add(1)) {\n            RegisteredDerivative storage derivative = registeredDerivatives[i];\n            if (derivativesToParties[derivative.derivativeAddress].parties[party]) {\n                // Copy selected derivative to the temporary array.\n                tmpDerivativeArray[outputIndex] = derivative;\n                outputIndex = outputIndex.add(1);\n            }\n        }\n\n        // Copy the temp array to the return array that is set to the correct size.\n        derivatives = new RegisteredDerivative[](outputIndex);\n        for (uint j = 0; j < outputIndex; j = j.add(1)) {\n            derivatives[j] = tmpDerivativeArray[j];\n        }\n    }\n\n    function getAllRegisteredDerivatives() external view returns (RegisteredDerivative[] memory derivatives) {\n        return registeredDerivatives;\n    }\n\n    function isDerivativeCreatorAuthorized(address derivativeCreator) external view returns (bool isAuthorized) {\n        return derivativeCreators[derivativeCreator];\n    }\n\n    event RegisterDerivative(address indexed derivativeAddress, address[] parties);\n    event AddDerivativeCreator(address indexed addedDerivativeCreator);\n    event RemoveDerivativeCreator(address indexed removedDerivativeCreator);\n\n}\n",
  "sourcePath": "/Users/matt/git/protocol/contracts/Registry.sol",
  "compiler": {
    "name": "solc",
    "version": "0.5.0+commit.1d4f565a.Emscripten.clang"
  },
  "schemaVersion": "3.0.1",
  "updatedAt": "2019-03-06T13:08:39.391Z",
  "devdoc": {
    "methods": {
      "isOwner()": {
        "return": "true if `msg.sender` is the owner of the contract."
      },
      "owner()": {
        "return": "the address of the owner."
      },
      "renounceOwnership()": {
        "details": "Allows the current owner to relinquish control of the contract."
      },
      "transferOwnership(address)": {
        "details": "Allows the current owner to transfer control of the contract to a newOwner.",
        "params": {
          "newOwner": "The address to transfer ownership to."
        }
      }
    }
  },
  "userdoc": {
    "methods": {
      "renounceOwnership()": {
        "notice": "Renouncing to ownership will leave the contract without an owner. It will not be possible to call the functions with the `onlyOwner` modifier anymore."
      }
    }
  }
}